:020000040800F2
:1000000000800120891B00089D1A00089F1A000823
:10001000A11A0008A31A0008A51A00080000000091
:10002000000000000000000000000000A1330008F4
:10003000A71A00080000000041340008073100083A
:10004000D91B0008D91B0008D91B0008D91B0008C0
:10005000D91B0008D91B0008D91B0008D91B0008B0
:10006000D91B0008D91B0008D91B0008D91B0008A0
:10007000D91B0008D91B0008D91B0008D91B000890
:10008000D91B0008D91B0008D91B0008000000007C
:10009000000000000000000000000000D91B000864
:1000A000D91B0008A91A0008D91B0008D91B000891
:1000B000D91B0008D91B0008D91B0008D91B000850
:1000C000D91B0008D91B0008D91B0008D91B000840
:1000D000D91B0008D91B0008D91B0008000000002C
:1000E000D91B0008D91B0008D91B0008000000001C
:1000F000000000000000000000000000D91B000804
:1001000000000000D91B0008D91B0008D91B0008FB
:1001100000000000000000000000000000000000DF
:10012000D91B0008D91B0008D91B0008D91B0008DF
:10013000D91B0008000000000000000000000000C3
:10014000000000000000000000000000D91B0008B3
:10015000D91B0008D91B0008D91B0008D91B0008AF
:10016000D91B0008D91B0008000000000000000097
:10017000000000000000000000000000000000007F
:1001800000000000D91B0008000000000000000073
:04019000D91B00086F
:1001C00081F0004102E000BF83F0004330B54FEA08
:1001D00041044FEA430594EA050F08BF90EA020F75
:1001E0001FBF54EA000C55EA020C7FEA645C7FEA08
:1001F000655C00F0E2804FEA5454D4EB5555B8BF2B
:100200006D420CDD2C4480EA020281EA030382EA9B
:10021000000083EA010180EA020281EA0303362D2D
:1002200088BF30BD11F0004F4FEA01314FF4801C00
:100230004CEA113102D0404261EB410113F0004F12
:100240004FEA03334CEA133302D0524263EB4303C9
:1002500094EA050F00F0A780A4F10104D5F1200E67
:100260000DDB02FA0EFC22FA05F2801841F10001C2
:1002700003FA0EF2801843FA05F359410EE0A5F196
:1002800020050EF1200E012A03FA0EFC28BF4CF0C7
:10029000020C43FA05F3C01851EBE37101F000457D
:1002A00007D54FF0000EDCF1000C7EEB00006EEB8A
:1002B0000101B1F5801F1BD3B1F5001F0CD3490814
:1002C0005FEA30004FEA3C0C04F101044FEA44526B
:1002D00012F5800F80F09A80BCF1004F08BF5FEAF2
:1002E000500C50F1000041EB045141EA050130BDD2
:1002F0005FEA4C0C404141EB0101013C28BFB1F5E4
:10030000801FE9D291F0000F04BF01460020B1FA2E
:1003100081F308BF2033A3F10B03B3F120020CDA01
:100320000C3208DD02F1140CC2F10C0201FA0CF0DF
:1003300021FA02F10CE002F11402D8BFC2F1200C44
:1003400001FA02F120FA0CFCDCBF41EA0C019040FA
:10035000E41AA2BF01EB0451294330BD6FEA040443
:100360001F3C1CDA0C340EDC04F11404C4F120022E
:1003700020FA04F001FA02F340EA030021FA04F340
:1003800045EA030130BDC4F10C04C4F1200220FA97
:1003900002F001FA04F340EA0300294630BD21FAD5
:1003A00004F0294630BD94F0000F83F4801306BF9B
:1003B00081F480110134013D4EE77FEA645C18BF8F
:1003C0007FEA655C29D094EA050F08BF90EA020F26
:1003D00005D054EA000C04BF1946104630BD91EA1E
:1003E000030F1EBF0021002030BD5FEA545C05D121
:1003F0004000494128BF41F0004130BD14F5800460
:100400003CBF01F5801130BD01F0004545F0FE41D3
:1004100041F470014FF0000030BD7FEA645C1ABF08
:10042000194610467FEA655C1CBF0B46024650EA3F
:10043000013406BF52EA033591EA030F41F400216B
:1004400030BD00BF90F0000F04BF0021704730B5F1
:100450004FF4806404F132044FF000054FF00001C6
:1004600050E700BF90F0000F04BF0021704730B587
:100470004FF4806404F1320410F0004548BF40425C
:100480004FF000013EE700BF42004FEAE2014FEAB1
:1004900031014FEA02701FBF12F07F4393F07F4F8C
:1004A00081F06051704732F07F4208BF704793F08F
:1004B0007F4F04BF41F40021704730B54FF46074A2
:1004C00001F0004521F000411CE700BF50EA0102A5
:1004D00008BF704730B54FF000050AE050EA01024E
:1004E00008BF704730B511F0004502D5404261EBBE
:1004F00041014FF4806404F132045FEA915C3FF4FF
:10050000D8AE4FF003025FEADC0C18BF03325FEA9B
:10051000DC0C18BF033202EBDC02C2F1200300FA4C
:1005200003FC20FA02F001FA03FE40EA0E0021FA71
:1005300002F11444BDE600BF70B54FF0FF0C4CF45F
:10054000E06C1CEA11541DBF1CEA135594EA0C0F11
:1005500095EA0C0F00F0DEF82C4481EA030621EA4C
:100560004C5123EA4C5350EA013518BF52EA033587
:1005700041F4801143F4801338D0A0FB02CE4FF039
:100580000005E1FB02E506F00042E0FB03E54FF069
:100590000006E1FB03569CF0000F18BF4EF0010E61
:1005A000A4F1FF04B6F5007F64F5407404D25FEA5D
:1005B0004E0E6D4146EB060642EAC62141EA555110
:1005C0004FEAC52040EA5E504FEACE2EB4F1FD0C52
:1005D00088BFBCF5E06F1ED8BEF1004F08BF5FEAD0
:1005E000500E50F1000041EB045170BD06F0004682
:1005F00046EA010140EA020081EA0301B4EB5C042F
:10060000C2BFD4EB0C0541EA045170BD41F4801126
:100610004FF0000E013C00F3AB8014F1360FDEBF4B
:10062000002001F0004170BDC4F10004203C35DA27
:100630000C341BDC04F11404C4F1200500FA05F3AA
:1006400020FA04F001FA05F240EA020001F000424B
:1006500021F0004110EBD37021FA04F642EB0601C1
:100660005EEA430E08BF20EAD37070BDC4F10C04EB
:10067000C4F1200500FA04F320FA05F001FA04F2AF
:1006800040EA020001F0004110EBD37041F100019B
:100690005EEA430E08BF20EAD37070BDC4F12005A6
:1006A00000FA05F24EEA020E20FA04F301FA05F20E
:1006B00043EA020321FA04F001F0004121FA04F2B6
:1006C00020EA020000EBD3705EEA430E08BF20EA86
:1006D000D37070BD94F0000F0FD101F000464000C0
:1006E00041EB010111F4801F08BF013CF7D041EA42
:1006F000060195F0000F18BF704703F00046520046
:1007000043EB030313F4801F08BF013DF7D043EA16
:100710000603704794EA0C0F0CEA135518BF95EACC
:100720000C0F0CD050EA410618BF52EA4306D1D153
:1007300081EA030101F000414FF0000070BD50EA72
:10074000410606BF1046194652EA430619D094EAFC
:100750000C0F02D150EA013613D195EA0C0F05D1E6
:1007600052EA03361CBF104619460AD181EA03013A
:1007700001F0004141F0FE4141F470014FF00000F2
:1007800070BD41F0FE4141F4780170BD70B54FF08D
:10079000FF0C4CF4E06C1CEA11541DBF1CEA13550D
:1007A00094EA0C0F95EA0C0F00F0A7F8A4EB0504EF
:1007B00081EA030E52EA03354FEA013100F08880E6
:1007C0004FEA03334FF0805545EA131343EA1263AF
:1007D0004FEA022245EA111545EA10654FEA002664
:1007E0000EF000419D4208BF964244F1FD0404F51D
:1007F000407402D25B084FEA3202B61A65EB030579
:100800005B084FEA32024FF480104FF4002CB6EB35
:10081000020E75EB030E22BFB61A754640EA0C00B5
:100820005B084FEA3202B6EB020E75EB030E22BFF5
:10083000B61A754640EA5C005B084FEA3202B6EB36
:10084000020E75EB030E22BFB61A754640EA9C00F5
:100850005B084FEA3202B6EB020E75EB030E22BFC5
:10086000B61A754640EADC0055EA060E18D04FEA83
:10087000051545EA16754FEA06164FEAC30343EA23
:1008800052734FEAC2025FEA1C1CC0D111F4801FF0
:100890000BD141EA00014FF000004FF0004CB6E7E9
:1008A00011F4801F04BF01430020B4F1FD0C88BF88
:1008B000BCF5E06F3FF6AFAEB5EB030C04BFB6EB93
:1008C000020C5FEA500C50F1000041EB045170BD86
:1008D0000EF0004E4EEA113114EB5C04C2BFD4EBB3
:1008E0000C0541EA045170BD41F480114FF0000E37
:1008F000013C90E645EA060E8DE60CEA135594EAB3
:100900000C0F08BF95EA0C0F3FF43BAF94EA0C0FB5
:100910000AD150EA01347FF434AF95EA0C0F7FF42A
:1009200025AF104619462CE795EA0C0F06D152EA7E
:1009300003353FF4FDAE1046194622E750EA410662
:1009400018BF52EA43067FF4C5AE50EA41047FF473
:100950000DAF52EA43057FF4EBAE12E74FF0FF3CD8
:1009600006E000BF4FF0010C02E000BF4FF0010CA9
:100970004DF804CD4FEA410C7FEA6C5C4FEA430C22
:1009800018BF7FEA6C5C1BD001B050EA410C0CBF71
:1009900052EA430C91EA030F02BF90EA020F0020D3
:1009A000704710F1000F91EA030F58BF994208BF3A
:1009B00090422CBFD8176FEAE37040F001007047F7
:1009C0004FEA410C7FEA6C5C02D150EA013C07D14E
:1009D0004FEA430C7FEA6C5CD6D152EA033CD3D099
:1009E0005DF8040B704700BF8446104662468C4693
:1009F0001946634600E000BF01B5FFF7B7FF0028C6
:100A000048BF10F1000F01BD4DF808EDFFF7F4FFEE
:100A10000CBF012000205DF808FB00BF4DF808ED79
:100A2000FFF7EAFF34BF012000205DF808FB00BF9C
:100A30004DF808EDFFF7E0FF94BF012000205DF8BE
:100A400008FB00BF4DF808EDFFF7CEFF94BF012073
:100A500000205DF808FB00BF4DF808EDFFF7C4FF6C
:100A600034BF012000205DF808FB00BF4FEA410CB5
:100A70007FEA6C5C02D150EA013C0AD14FEA430C98
:100A80007FEA6C5C02D152EA033C02D14FF00000D5
:100A900070474FF0010070474FEA4102B2F1E04366
:100AA00024BFB3F5001CDCF1FE5C0DD901F0004C55
:100AB0004FEAC0024CEA5070B2F1004F40EB8300A5
:100AC00008BF20F00100704711F0804F21D113F1D1
:100AD0003872BCBF01F00040704741F480114FEA0A
:100AE0005252C2F11802C2F1200C10FA0CF320FA93
:100AF00002F018BF40F001004FEAC1234FEAD323B0
:100B000003FA0CFC40EA0C0023FA02F34FEA430319
:100B1000CCE77FEA625307D150EA01331EBF4FF0A2
:100B2000FE4040F44000704701F0004040F0FE40BD
:100B300040F40000704700BF53B94AB9002908BF0C
:100B400000281CBF4FF0FF314FF0FF3000F00CB811
:100B5000ADF1080C6DE904CE04F0C0F9DDF804E055
:100B6000DDE9022304B07047704700BF844641EAC4
:100B7000000313F003036DD1403A41D351F8043B15
:100B800040F8043B51F8043B40F8043B51F8043B67
:100B900040F8043B51F8043B40F8043B51F8043B57
:100BA00040F8043B51F8043B40F8043B51F8043B47
:100BB00040F8043B51F8043B40F8043B51F8043B37
:100BC00040F8043B51F8043B40F8043B51F8043B27
:100BD00040F8043B51F8043B40F8043B51F8043B17
:100BE00040F8043B51F8043B40F8043B51F8043B07
:100BF00040F8043B51F8043B40F8043B403ABDD276
:100C0000303211D351F8043B40F8043B51F8043B17
:100C100040F8043B51F8043B40F8043B51F8043BD6
:100C200040F8043B103AEDD20C3205D351F8043BA6
:100C300040F8043B043AF9D2043208D0D2071CBF72
:100C400011F8013B00F8013B01D30B88038060469B
:100C5000704700BF082A13D38B078DD010F0030311
:100C60008AD0C3F10403D21ADB071CBF11F8013B81
:100C700000F8013B80D331F8023B20F8023B7BE7D0
:100C8000043AD9D3013A11F8013B00F8013BF9D2FB
:100C90000B7803704B7843708B7883706046704795
:100CA0000000000000000000000000000000000044
:100CB0000000000000000000000000000000000034
:100CC00030B490F800F020F007016FF0000C10F045
:100CD000070491F820F040F048804FF000046FF0D6
:100CE0000700D1E9002391F840F000F1080082FAF2
:100CF0004CF2A4FA8CF283FA4CF3A2FA8CF34BBBBD
:100D0000D1E9022382FA4CF200F10800A4FA8CF235
:100D100083FA4CF3A2FA8CF3E3B9D1E9042382FA03
:100D20004CF200F10800A4FA8CF283FA4CF3A2FA18
:100D30008CF37BB9D1E9062301F1200182FA4CF250
:100D400000F10800A4FA8CF283FA4CF3A2FA8CF3B7
:100D5000002BC6D0002A04BF04301A4612BAB2FAD9
:100D600082F200EBD20030BC7047D1E9002304F0DE
:100D70000305C4F100004FEAC50514F0040F91F813
:100D800040F00CFA05F562EA05021CBF63EA0503B0
:100D900062464FF00004AAE70000000000000000D7
:100DA00001F0FF01102A2BDB10F0070F08D010F81C
:100DB000013B013A8B422DD010F0070F42B3F6D120
:100DC000F0B441EA012141EA014122F007047FF039
:100DD00000070023F0E80256083C85EA010586EA90
:100DE000010685FA47F5A3FA87F586FA47F6A5FACC
:100DF00087F68EB9EED1F0BC01F0FF0102F00702D8
:100E000032B110F8013B013A83EA010313B1F8D182
:100E10000020704701387047002D06BF3546033863
:100E2000073815F0010F07D1013015F4807F02BF9C
:100E3000013015F4C03F0130F0BC0138704700BFED
:100E40004FEA410212F5001215D211D56FF47873F2
:100E5000B3EB625212D94FEAC12343F0004343EA95
:100E6000505311F0004F23FA02F018BF4042704770
:100E70004FF00000704750EA013005D111F00040FA
:100E800008BF6FF0004070474FF00000704700BF90
:100E90000348044B834202D0034B03B11847704709
:100EA000CC060020CC060020000000000548064BC0
:100EB0001B1AD90F01EBA301491002D0034B03B158
:100EC00018477047CC060020CC0600200000000028
:100ED00010B5064C237843B9FFF7DAFF044B13B182
:100EE0000448AFF300800123237010BDD00600201A
:100EF000000000006CB5000808B5054B1BB10549A2
:100F00000548AFF30080BDE80840FFF7CFBF00BF42
:100F100000000000D40600206CB5000808B50249A6
:100F2000002000F077F808BD88B50008032828D80D
:100F300010B590B0044691B10122124B33F8101055
:100F4000114801F05FF92346104A4021684604F039
:100F500015FA6946002000F05DF810B010BD0022BF
:100F6000084B33F81010084801F04CF92346084AA2
:100F70004021684604F002FA6946002000F04AF871
:100F8000EBE77047E4B5000800040240A4B5000890
:100F9000C4B5000810B52DED028B84B000249FED80
:100FA0001B8A0BE0204600F063F804AB03EB8403DC
:100FB00003ED040A38EE008A0134E4B2032CF1D9BF
:100FC000F5EE007A28EE278A002405E0002120466D
:100FD000FFF7ACFF0134E4B2032C12D804AB03EBEF
:100FE000840313ED047ADFED0A7A78EE277AB4EE03
:100FF000E77AF1EE10FAE9DD01212046FFF796FFCE
:10100000E8E704B0BDEC028B10BD00BF000000009B
:10101000CDCC4C3D00B5A3B0012818D0022818D083
:1010200098B10D4B00910D4A802102A804F0A6F959
:1010300002A8FFF745FE4FF0FF3382B202A908482D
:1010400001F0F5FF23B05DF804FB064BEAE7064B21
:10105000E8E7064BE6E700BF08B6000814B600084C
:10106000B4180020ECB50008F4B5000800B600087C
:10107000032817D808B5104B53F82000FFF7E2F902
:101080000BA3D3E90023FFF757FA00220B4BFFF71E
:1010900053FAFFF701FD00EE100ADFED097A20EEAA
:1010A000270A08BD9FED070A704700BFAFF3008015
:1010B0006666666666660A40EC0600200000303F01
:1010C0003EF880400000000010B52DED028B00249A
:1010D0009FED088A06E02046FFF7CAFF38EE008A37
:1010E0000134E4B2032CF6D9B0EE480ABDEC028B11
:1010F00010BD00BF0000000008B5114B1869FFF7D4
:10110000A1F90BA3D3E90023FFF716FA00220D4B38
:10111000FFF712FAFFF7C0FCFFF7B6F906A3D3E911
:101120000023FFF733FBFFF7B7FC00EE100A08BD02
:101130006666666666660A40FCA9F1D24D62503F5B
:10114000EC0600200000303F08B50B4BD3ED006AE1
:101150009FED0A7AC6EE877AB2EE047A67EE877A56
:101160009FED077A67EE877A064BC3ED007A064952
:101170000020FFF74FFF08BD000000200000C8421C
:1011800000006145040700201CB6000800B593B0BC
:1011900020EE200A194B93ED007A37EE407A83ED6A
:1011A000007ADFED176AC7EE267A9FED167A67EEB2
:1011B000877A154BC3ED007AF4EEC77AF1EE10FA98
:1011C00013DD83ED007A104B1868FFF75DF9CDE968
:1011D00000010E4A402102A804F0D0F802A9002024
:1011E000FFF718FF13B05DF804FBF5EEC07AF1EEDF
:1011F00010FAE8D5044B00221A60E4E70407002047
:1012000000A00C470000C8420000002034B60008CF
:10121000014B93ED000A70470000002008B5044B15
:10122000044A1A6004490020FFF7F4FE08BD00BF1D
:10123000040000200000C84248B6000800B593B082
:1012400007EE900AF8EE677A9FED127A67EE877ADA
:101250009FED117A77EE677A104BC3ED007AF5EEC9
:10126000C07AF1EE10FA11D40C4B1868FFF70CF9A4
:10127000CDE900010A4A402102A804F07FF802A942
:101280000020FFF7C7FE13B05DF804FB00221A60D0
:10129000EAE700BFCDCCCC3D0000C84204000020EE
:1012A00060B60008014B93ED000A7047040000206F
:1012B00008B504490020FFF7ADFE034B02221A7067
:1012C00008BD00BF74B600080D07002008B504492A
:1012D0000220FFF79FFE034B04221A7008BD00BFD7
:1012E0009CB600080D07002008B502490120FFF751
:1012F00091FE08BDC4B6000808B5FFF725FFFFF74B
:101300008DFF04490020FFF785FE034B01221A7070
:1013100008BD00BFF0B600080D07002010B52DED88
:10132000028BA4B0FFF7E8FEDFED340AFFF72EFFD3
:10133000FFF7CAFEB0EE408AFFF76AFF10EE104AD0
:1013400018EE100AFFF7A0F8CDE902012046FFF7DA
:101350009BF8CDE900012A4A802104A804F00EF888
:1013600004A90020FFF756FEF2EE097AB4EEE78AF0
:10137000F1EE10FA02D5234B1B7813B3F2EE0A7A82
:10138000B4EEE78AF1EE10FA02DD1E4B00221A706D
:10139000F2EE087AB4EEE78AF1EE10FA06D4DFED49
:1013A0001A7AB4EEE78AF1EE10FA06DD1749022048
:1013B000FFF730FE164B03221A7024B0BDEC028BEF
:1013C00010BD144C206801302060FFF737FF0D4B33
:1013D00001221A702468FFF765FF10EE100AFFF76C
:1013E00053F8CDE9000123460B4A802104A803F0FD
:1013F000C5FF04A90020FFF70DFEC9E7CDCCCC3D09
:1014000014B700080C0700206666864174B7000810
:101410000D0700200807002044B7000808B5002089
:10142000024B18700249FFF7F5FD08BD0D070020BB
:10143000B0B7000808B5104B1B78042B13D8DFE8B1
:1014400003F00306090C0F00FFF756FF08BDFFF776
:101450002FFFFBE7FFF762FFF8E7FFF737FFF5E73E
:10146000FFF742FFF2E705490220FFF7D3FD024BE9
:1014700003221A70EAE700BF0D070020DCB700085E
:1014800030B58BB000240594069407940894099411
:1014900001941D4B1A6B42F004021A631A6B02F09E
:1014A00004020192019A02941A6B42F080021A63BC
:1014B0001A6B02F080020292029A03941A6B42F0B5
:1014C00001021A631A6B02F001020392039A049458
:1014D0001A6B42F002021A631B6B03F002030493BF
:1014E000049B0A4D22462021284600F08BFE202333
:1014F0000593012306930794089405A9284600F054
:101500009DFD0BB030BD00BF00380240000002401E
:1015100008B50268034B9A4200D008BD00F078FB82
:10152000FBE700BF0000014072B6FEE700B585B0E2
:10153000002300930193029303931448144A02601A
:101540004FF48032426083600361037680F820307C
:10155000C362104A8262C3600122C26180F83030E7
:10156000426100F001FC60B9002300930122019266
:1015700002936946054800F023FC20B905B05DF8E8
:1015800004FBFFF7D1FFFFF7CFFF00BFAC1900202E
:10159000002001400100000F08B50448044B03601F
:1015A00000F03CFD00B908BDFFF7BEFFA419002004
:1015B0000030024008B50A480A4B03600A4B4360FA
:1015C00000238360C3604FF4804202614361836102
:1015D000C361036200F01CFE00B908BDFFF7A4FF61
:1015E0005019002000540040A086010008B50D48A5
:1015F0000D4B03604FF48273436000238360C3602C
:10160000036143614FF400728261C361036243620C
:1016100083620A23C36201F037FA00B908BDFFF7FD
:1016200083FF00BFF81800200038004008B50A48C2
:101630000A4B03604FF4E133436000238360C360CF
:1016400003610C2242618361C36101F0C1FC00B9F6
:1016500008BDFFF769FF00BFB41800200044004038
:1016600000B595B03022002108A803F013FF002335
:101670000393049305930693079301931F4A116CF8
:1016800041F080511164126C02F080520192019A73
:1016900002931B490A6822F4404242F400420A6065
:1016A0000A6802F440420292029A02210891012241
:1016B0000B9210220C920E910F9310924FF4A8737C
:1016C0001193042312930723139308A800F07EFEBE
:1016D00080B90F23039302210491002305934FF453
:1016E00080520692079303A801F0DAF820B915B0EA
:1016F0005DF804FBFFF718FFFFF716FF0038024004
:101700000070004008B500F069FAFFF7A9FFFFF785
:10171000B7FEFFF70BFFFFF73FFFFFF74BFFFFF7AA
:1017200065FFFFF783FF01F0FBFC134A002113481C
:1017300001F024FD124B1860124A0021124801F0FA
:101740001DFD124B1860124A0021124801F016FDCF
:10175000114B1860114A0021114801F00FFD114B87
:101760001860114A0021114801F008FD104B186063
:1017700001F0E8FCFEE700BFE0B800082F4E0008CB
:10178000B0180020BCB80008454E000828150020FD
:1017900098B80008434E0008A011002074B8000853
:1017A000414E0008180E002050B800081B4E0008DB
:1017B000900A002000B583B0002200920D4B596CB6
:1017C00041F480415964596C01F4804100910099C1
:1017D0000192196C41F0805119641B6C03F0805325
:1017E0000193019B0F216FF0010000F0F9FB03B0A2
:1017F0005DF804FB0038024000B589B00023039374
:101800000493059306930793026803F1804303F55D
:1018100090339A4202D009B05DF804FB0021019197
:1018200003F58C335A6C42F480725A645A6C02F499
:1018300080720192019A02911A6B42F001021A63BE
:101840001B6B03F001030293029B532303930323B7
:10185000049303A9014800F0F1FBDCE7000002401B
:101860000268094B9A4200D0704782B0002301936E
:10187000064B1A6B42F480521A631B6B03F48053BD
:101880000193019B02B070470030024000380240D3
:1018900030B589B00023039304930593069307930F
:1018A0000268144B9A4201D009B030BD0025019561
:1018B000114C236B43F002032363236B03F00203F9
:1018C0000193019BC02303931223049303230693E4
:1018D0000423079303A9094800F0B0FB0295236C89
:1018E00043F400132364236C03F400130293029B5C
:1018F000DAE700BF00540040003802400004024014
:10190000F0B589B0002303930493059306930793DE
:1019100002681F4B9A4201D009B0F0BD0024009428
:1019200003F500331A6C42F480421A641A6C02F414
:1019300080420092009A01941A6B42F004021A63EA
:101940001A6B02F004020192019A02941A6B42F09F
:1019500002021A631B6B03F002030293029B0C2327
:1019600003930227049703260696052507950DEB9A
:101970000301084800F062FB4FF48063039304976F
:1019800005940696079503A9034800F057FBC3E7A3
:1019900000380040000802400004024000B589B051
:1019A0000023039304930593069307930268144B53
:1019B0009A4202D009B05DF804FB0021019103F5C1
:1019C000FA331A6C42F400321A641A6C02F40032D0
:1019D0000192019A02911A6B42F001021A631B6B89
:1019E00003F001030293029B0C230393022304934D
:1019F0000723079303A9034800F020FBDAE700BFA1
:101A0000004400400000024030B589B00546002483
:101A100001941D4B5A6C42F001025A645B6C03F056
:101A200001030193019B02A903A801F00FF800F044
:101A3000FDFF164AA2FB00239B0C013B1448154AEC
:101A4000026040F2E732C2604360046184608461F6
:101A500001F0C6F9044610B1204609B030BD0C486B
:101A600001F072F804460028F6D1192000F0C8FAF7
:101A70000F2D01D90124EFE700222946192000F09B
:101A8000AFFA054B1D60E7E70038024083DE1B43D9
:101A9000F41900200000014010000020FEE7FEE7DE
:101AA000FEE7FEE7FEE7704708B5024801F08CF854
:101AB00008BD00BFF41900200120704708B503F0ED
:101AC000BDFD162303604FF0FF3008BD08B54FF091
:101AD000FF31FFF7F3FFFEE770B50C461646002511
:101AE00006E0AFF30080214601F8010B01350C46FA
:101AF000B542F6DB304670BD70B50C461646002583
:101B000004E014F8010BAFF300800135B542F8DBB7
:101B1000304670BD4FF0FF3070474FF400534B60BC
:101B200000207047012070470020704710B5034621
:101B30000C4A0D490D48006840B10C480068034448
:101B4000521A934206D8094A136010BD0748084C40
:101B50000460F2E703F072FD0C2303604FF0FF30E6
:101B6000F3E700BF00800120000400003C1A0020C1
:101B7000F8680020034AD2F8883043F47003C2F8B2
:101B80008830704700ED00E0DFF834D00D480E4992
:101B90000E4A002302E0D458C4500433C4188C42C7
:101BA000F9D30B4A0B4C002301E013600432A2422C
:101BB000FBD3FFF7DFFF03F047FDFFF7A3FD7047FF
:101BC0000080012000000020CC06002090BD00080D
:101BD000D0060020F4680020FEE7000008B50B4B9B
:101BE0001A6842F400721A601A6842F480621A603D
:101BF0001A6842F480721A60032000F0DFF90F20A7
:101C0000FFF702FFFFF7D6FD002008BD003C0240B1
:101C1000034A1168034B1B780B441360704700BFE5
:101C2000401A00200C000020014B1868704700BFCC
:101C3000401A00204A4B5A6822F440325A605A68CF
:101C400041680A435A600268536823F48073536002
:101C500002685368016943EA0123536002685368CC
:101C600023F0407353600268536881680B435360EC
:101C70000268936823F40063936002689368C16804
:101C80000B439360826A374B9A4257D0026893683D
:101C900023F07063936002689368816A0B439360DA
:101CA0000268936823F04053936002689368C16AA6
:101CB0000B4393600268936823F002039360026809
:101CC0009368017E43EA4103936090F82030002B33
:101CD0003FD00268536843F400635360026853685E
:101CE00023F46043536001684B68426A013A43EA57
:101CF00042334B600268D36A23F47003D3620168F5
:101D0000CB6AC269013A43EA0253CB620268936824
:101D100023F4007393600268936890F8301043EAEC
:101D2000412393600268936823F4806393600268A0
:101D30009368416943EA812393607047026893681E
:101D400023F0706393600268936823F040539360BC
:101D5000B0E70268536823F400635360CAE700BF2A
:101D6000002301400100000F38B310B50446036C96
:101D700043B1236C13F0100F0BD00120002384F823
:101D80003C3010BDFFF738FD0023636484F83C301D
:101D9000EFE7236C23F4885323F0020343F002039C
:101DA00023642046FFF746FF00206064236C23F085
:101DB000030343F001032364E0E7012070470000C0
:101DC00030B482B00022019290F83C20012A00F049
:101DD000B6800346012280F83C200A68092A40D9CF
:101DE0000468E06892B202EB42021E3A4FF0070C20
:101DF0000CFA02F220EA0202E2601C68E0680A883B
:101E000002EB42021E3A8D6805FA02F20243E260DA
:101E10004A68062A3CD81C68606B02EB8202053ACD
:101E20004FF01F0C0CFA02F220EA020262631C68F7
:101E3000606B4A6802EB8202053AB1F800C00CFA06
:101E400002F20243626318683E4A904250D018681A
:101E50003C4A904255D0002083F83C0002B030BC90
:101E600070470468206992B202EB42024FF0070CFF
:101E70000CFA02F220EA020222611C6820690A8838
:101E800002EB42028D6805FA02F202432261BFE7CB
:101E90000C2A16D81D68286B02EB8202233A1F24F5
:101EA00004FA02F220EA02022A631D68286B4A68DB
:101EB00002EB8202233A0C8804FA02F202432A63FC
:101EC000C1E71D68E86A02EB8202413A1F2404FA66
:101ED00002F220EA0202EA621D68E86A4A6802EB3E
:101EE0008202413A0C8804FA02F20243EA62AAE74B
:101EF0000A68122AABD11448426842F48002426058
:101F0000A5E70A68103A012AA5D80F48426842F4AA
:101F1000000242600A68102A9DD10C4A12680C49DE
:101F2000A1FB0212920C02EB82025200019202E02B
:101F3000019A013A0192019A002AF9D18BE7022015
:101F40008CE700BF00200140002301400800002072
:101F500083DE1B43002808DB0901C9B200F16040A1
:101F600000F5614080F80013704700F00F00090190
:101F7000C9B2014B1954704714ED00E000B500F0F0
:101F80000700C0F1070CBCF1040F28BF4FF0040C90
:101F9000031D062B0FD9C31E4FF0FF3E0EFA0CF0A7
:101FA00021EA000199400EFA03FE22EA0E0241EAFC
:101FB00002005DF804FB0023EEE70000074AD36847
:101FC00023F4E0631B041B0C000200F4E0600343F5
:101FD00043F0BF6343F40033D360704700ED00E08B
:101FE00010B50446054BD868C0F30220FFF7C6FFC2
:101FF00001462046FFF7AEFF10BD00BF00ED00E038
:10200000002807DB00F01F02400901239340024A29
:1020100042F82030704700BF00E100E058B110B531
:10202000044643791BB101236371002010BD037185
:10203000FFF716FCF7E701207047000000230F2B85
:1020400000F2D78070B582B065E085684FEA430E34
:10205000032404FA0EF425EA0405CC6804FA0EF40D
:102060002C438460446824EA02044A68C2F30012E4
:102070009A40224342605CE0DC08083450F8242097
:1020800003F00705AD004FF00F0E0EFA05FE22EA31
:102090000E0E0A69AA4042EA0E0240F824205CE0D3
:1020A000042200E0002202FA0EF22A430234514DCB
:1020B00045F82420504A94686FEA0C0224EA0C0583
:1020C0004E6816F4801F01D04CEA04054A4CA56006
:1020D000E46802EA04054E6816F4001F01D04CEAD9
:1020E0000405454CE560646802EA04054E6816F490
:1020F000003F01D04CEA04053F4C65602468224053
:102100004D6815F4803F01D04CEA04023A4C22603D
:1021100001330F2B6BD801229A400C6804EA020CA1
:1021200032EA0404F4D14C6804F00304013C012CAD
:102130008BD94A6802F00302032A09D0C4685D0003
:102140000322AA4024EA02048A68AA402243C26009
:102150004A6802F00302022A8ED004684FEA430E56
:10216000032202FA0EF224EA02044A6802F0030291
:1021700002FA0EF2224302604A6812F4403FC7D0CE
:10218000002201921D4A546C44F480445464526C01
:1021900002F480420192019A9C08A51C154A52F84B
:1021A000255003F0030E4FEA8E0E0F2202FA0EF2B4
:1021B00025EA0205124A90423FF474AF02F58062AC
:1021C00090420ED002F5806290420CD002F58062FF
:1021D00090420AD002F5806290423FF461AF07223C
:1021E00061E701225FE702225DE703225BE702B0BD
:1021F00070BD704700380140003C0140003802408B
:10220000000002400AB18161704709048161704792
:10221000002800F0CC8070B5044690F83D30002BCB
:1022200077D0242384F83D302268136823F001031B
:1022300013602268136843F4004313602268136834
:1022400023F40043136000F0E1FB62685A4B9A42AA
:1022500064D85A4B98428CBF00230123002B40F0D6
:10226000A8805749A1FB00318B0C25686A6822F0D1
:102270003F0242EA91426A6021680A6A22F03F0204
:1022800066684D4DAE424FD8013313430B6221684F
:10229000CA6922F44F4222F0FF026568464B9D4214
:1022A0004CD8431E6D00B3FBF5F3013340F6FC70D0
:1022B000034278D0C3F30B031A43CA6121680B6849
:1022C00023F0C003E269206A024313430B602168D4
:1022D0008B6823F4034323F0FF032269E068024381
:1022E00013438B602168CB6823F0FF036269A06908
:1022F00002431343CB602268136843F00103136069
:1023000000202064202384F83D30206384F83E00C0
:1023100070BD80F83C30FFF7BBFA82E7294B98424A
:102320008CBF0023012399E74FF4967505FB03F357
:10233000254DA5FB03539B090133A6E7A668BEB94B
:10234000431E05EB450CB3FBFCF30133C3F30B0356
:10235000B3FA83F35B0943BBC6B9431E05EB4505DE
:10236000B3FBF5F30133C3F30B0343F40043A3E7DB
:10237000431E05EB850C0CEB8C0CB3FBFCF301331B
:10238000C3F30B03B3FA83F35B09E4E7431E05EBE6
:10239000850505EB8505B3FBF5F30133C3F30B03AB
:1023A00043F4404388E7042386E7012384E70120C0
:1023B00070470120ACE700BFA08601007F841E00AB
:1023C00083DE1B43FF083D00D34D6210002800F060
:1023D000E08170B582B00446036813F0010F3BD072
:1023E0009F4B9B6803F00C03042B2CD09C4B9B68E9
:1023F00003F00C03082B21D06368B3F5803F4FD066
:10240000B3F5A02F52D0964B1A6822F480321A608E
:102410001A6822F480221A606368002B50D0FFF7FC
:1024200003FC05468E4B1B6813F4003F14D1FFF7E5
:10243000FBFB401B6428F5D90320B1E1884B5B68A6
:1024400013F4800FD8D0864B1B6813F4003F03D0E1
:102450006368002B00F09F81236813F0020F54D0B3
:102460007F4B9B6813F00C0F3ED07D4B9B6803F0B5
:102470000C03082B33D0E368002B68D0794B012282
:102480001A60FFF7D1FB0546754B1B6813F0020F6E
:1024900054D1FFF7C9FB401B0228F5D903207FE187
:1024A0006F4A136843F480331360B5E76C4B1A68C6
:1024B00042F480221A601A6842F480321A60ABE754
:1024C000FFF7B2FB0546664B1B6813F4003FC3D011
:1024D000FFF7AAFB401B6428F5D9032060E1604B9D
:1024E0005B6813F4800FC6D15D4B1B6813F0020FBD
:1024F00003D0E368012B40F05081594A136823F060
:10250000F803216943EAC1031360236813F0080F3D
:1025100042D063696BB3534B0122C3F8802EFFF79F
:1025200083FB05464E4B5B6F13F0020F34D1FFF770
:102530007BFB401B0228F5D9032031E1484A136890
:1025400023F0F803216943EAC1031360DDE7454B3B
:1025500000221A60FFF768FB0546414B1B6813F029
:10256000020FD2D0FFF760FB401B0228F5D90320F1
:1025700016E13C4B0022C3F8802EFFF755FB0546C1
:10258000374B5B6F13F0020F06D0FFF74DFB401B7C
:102590000228F5D9032003E1236813F0040F77D054
:1025A0002F4B1B6C13F0805F33D1002301932C4B16
:1025B0001A6C42F080521A641B6C03F08053019332
:1025C000019B0125284B1B6813F4807F23D0A3684F
:1025D000012B34D0052B38D0214B1A6F22F0010289
:1025E0001A671A6F22F004021A67A368002B3DD005
:1025F000FFF71AFB06461A4B1B6F13F0020F46D16A
:10260000FFF712FB801B41F288339842F3D9032075
:10261000C6E00025D6E7144A136843F480731360BC
:10262000FFF702FB0646104B1B6813F4807FCED1E8
:10263000FFF7FAFA801B0228F5D90320B0E0084A18
:10264000136F43F001031367CFE7054B1A6F42F096
:1026500004021A671A6F42F001021A67C5E700BF49
:10266000003802400000474200700040FFF7DCFAEB
:102670000646524B1B6F13F0020F08D0FFF7D4FA37
:10268000801B41F288339842F3D9032088E0EDB9EA
:10269000A369002B00F08380484A926802F00C0284
:1026A000082A51D0022B17D0454B00221A66FFF79B
:1026B000BBFA0446414B1B6813F0007F42D0FFF782
:1026C000B3FA001B0228F5D9032069E03B4A136CDA
:1026D00023F080531364DBE7394B00221A66FFF7BF
:1026E000A3FA0546354B1B6813F0007F06D0FFF7B1
:1026F0009BFA401B0228F5D9032051E0E369226AC6
:102700001343626A43EA8213A26A5208013A43EA17
:102710000243E26A43EA0263284A5360284B0122DB
:102720001A66FFF781FA0446244B1B6813F0007FFA
:1027300006D1FFF779FA001B0228F5D903202FE014
:1027400000202DE000202BE0012B2BD01B4B5B68E1
:1027500003F48001E269914226D103F03F02216A2D
:102760008A4223D1616A47F6C0721A40B2EB811FD8
:102770001ED103F44031A26A5208013AB1EB024F74
:1027800018D103F07063E26AB3EB026F14D100203A
:1027900006E001207047012002E0012000E0002057
:1027A00002B070BD0120FBE70120F9E70120F7E747
:1027B0000120F5E70120F3E70120F1E700380240AE
:1027C0000000474208B5334B9B6803F00C03042B11
:1027D0005BD0082B5BD12F4B5A6802F03F025B683D
:1027E00013F4800F2CD02B4B5868C0F388104FEA9D
:1027F000401CBCEB000C6EEB0E0E4FEA8E1343EA4E
:102800009C634FEA8C11B1EB0C0163EB0E03DB0010
:1028100043EA5173C90011EB000C43F10003590264
:1028200000234FEA4C2041EADC51FEF785F9194BB1
:102830005B68C3F3014301335B00B0FBF3F027E0B7
:10284000144B5868C0F388104FEA401CBCEB000CD6
:102850006EEB0E0E4FEA8E1343EA9C634FEA8C1127
:10286000B1EB0C0163EB0E03DB0043EA5173C900CB
:1028700011EB000C43F10003990200234FEA8C2076
:1028800041EA9C51FEF758F9D1E7034800E00348BC
:1028900008BD00BF0038024000127A000024F40096
:1028A000002800F09B8070B50D4604464F4B1B6816
:1028B00003F007038B4208D2CBB24C4A1370136863
:1028C00003F007038B4240F08B80236813F0020F64
:1028D00017D013F0040F04D0454A936843F4E05333
:1028E0009360236813F0080F04D0414A936843F4BF
:1028F000604393603E4A936823F0F003A1680B4362
:102900009360236813F0010F32D06368012B21D04C
:102910009A1E012A25D9364A126812F0020F61D098
:1029200033498A6822F0030213438B60FFF77CF976
:1029300006462F4B9B6803F00C036268B3EB820FD3
:1029400016D0FFF771F9801B41F288339842F0D915
:10295000032042E0264A126812F4003FE0D1012031
:102960003BE0234A126812F0007FD9D1012034E005
:102970001E4B1B6803F00703AB4207D9EAB21B4B9F
:102980001A701B6803F00703AB422DD1236813F0C4
:10299000040F06D0164A936823F4E053E1680B4312
:1029A0009360236813F0080F07D0114A936823F44B
:1029B0006043216943EAC1039360FFF703FF0C4BB7
:1029C0009B68C3F303130B4AD35CD8400A4B1860CF
:1029D0000A4B1868FFF718F8002070BD01207047F7
:1029E0000120FAE70120F8E70120F6E7003C024069
:1029F000003802400CB90008080000201000002038
:102A0000014B1868704700BF0800002008B5FFF7A9
:102A1000F7FF044B9B68C3F38223034AD35CD8407F
:102A200008BD00BF0038024004B9000808B5FFF730
:102A3000E7FF044B9B68C3F34233034AD35CD8409F
:102A400008BD00BF0038024004B900080F2303602E
:102A50000B4B9A6802F0030242609A6802F0F0029F
:102A600082609A6802F4E052C2609B68DB0803F45B
:102A7000E0530361034B1B6803F007030B607047CF
:102A800000380240003C024000285AD010B50446ED
:102A9000436A33B94368B3F5827F05D00023C3612D
:102AA00002E00023036143610023A36294F85130E4
:102AB000002B40D0022384F851302268136823F0A1
:102AC00040031360636803F48273A26802F4044253
:102AD0001343E26802F400621343226902F0020227
:102AE0001343626902F001021343A26902F4007207
:102AF0001343E26902F038021343226A02F08002B3
:102B00001343A26A02F40052216813430B60638BE3
:102B100003F00403626A02F01002216813434B6061
:102B20002268D36923F40063D36100206065012328
:102B300084F8513010BD84F850302046FEF7E0FE96
:102B4000B8E701207047704790F83D30DBB2012BA9
:102B50002FD1022380F83D300268D36843F001038F
:102B6000D3600368154A934218D0B3F1804F15D053
:102B7000A2F57C42934211D002F5806293420DD0BF
:102B800002F58062934209D002F59A32934205D051
:102B90001A6842F001021A60002070479A6802F039
:102BA0000702062A07D01A6842F001021A600020C4
:102BB0007047012070470020704700BF00000140AF
:102BC000704770477047704710B5044603681A692C
:102BD00012F0020F11D0DA6812F0020F0DD06FF070
:102BE00002021A610123037703689B6913F0030F44
:102BF00070D0FFF7E6FF0023237723681A6912F0ED
:102C0000040F12D0DA6812F0040F0ED06FF0040235
:102C10001A610223237723689B6913F4407F5FD0F6
:102C20002046FFF7CEFF0023237723681A6912F0AE
:102C3000080F12D0DA6812F0080F0ED06FF00802F9
:102C40001A61042323772368DB6913F0030F4ED046
:102C50002046FFF7B6FF0023237723681A6912F096
:102C6000100F12D0DA6812F0100F0ED06FF01002B1
:102C70001A61082323772368DB6913F4407F3DD072
:102C80002046FFF79EFF0023237723681A6912F07E
:102C9000010F03D0DA6812F0010F36D123681A69E8
:102CA00012F0800F03D0DA6812F0800F34D123685D
:102CB0001A6912F0400F03D0DA6812F0400F32D1D7
:102CC00023681A6912F0200F03D0DA6812F0200F7F
:102CD00030D110BDFFF774FF2046FFF773FF8AE77E
:102CE0002046FFF76DFF2046FFF76CFF9BE720466D
:102CF000FFF766FF2046FFF765FFACE72046FFF7CA
:102D00005FFF2046FFF75EFFBDE76FF001021A612B
:102D10002046FEF7FDFBC1E76FF080021A612046F6
:102D200000F08BF8C3E76FF040021A612046FFF70E
:102D30004AFFC5E76FF020021A61204600F07CF8D8
:102D4000C7E700000368254A90420ED0B0F1804FDB
:102D50000BD0A2F57C42904207D002F580629042EF
:102D600003D002F58062904203D123F070034A68D9
:102D700013431A4A90421AD0B0F1804F17D0A2F5EF
:102D80007C42904213D002F5806290420FD002F54F
:102D9000806290420BD002F59A32904207D002F541
:102DA0008062904203D002F58062904203D123F406
:102DB0004073CA68134323F080034A6913430360D6
:102DC0008B68C3620B688362044B984202D0012374
:102DD000436170470B690363F9E700BF00000140DE
:102DE00040B310B5044690F83D30F3B1022384F8A7
:102DF0003D30214651F8040BFFF7A4FF012384F86E
:102E0000463084F83E3084F83F3084F8403084F80F
:102E1000413084F8423084F8433084F8443084F8F8
:102E2000453084F83D30002010BD80F83C30FFF77D
:102E30008AFEDBE7012070477047704710B50446F3
:102E40000268136923F44053C1680B43136183681C
:102E500002691A4343691A43C3691A430168CB687C
:102E600023F4164323F00C031343CB600268536929
:102E700023F4407381690B4353610368314A9342E1
:102E800006D002F58062934202D0FFF7BFFD01E059
:102E9000FFF7CCFDE369B3F5004F29D000210318FB
:102EA00049411B1841F10001C90041EA5371DB009F
:102EB000181863684FEA83024FEA937341F10001E7
:102EC000FDF73AFE204AA2FB00314909642303FBC7
:102ED00011031B013233A2FB03235B0903F0F00251
:102EE00002EB011203F00F03216813448B6010BD45
:102EF0000023021843EB0301121841F10001C9003D
:102F000041EA5271D200101841F100016268921832
:102F10005B41FDF711FE0C4AA2FB00314909642315
:102F200003FB1103DB003233A2FB03235B095A00CE
:102F300002F4F87202EB011203F007032168134454
:102F40008B60D4E7001001401F85EB512DE9F84359
:102F500005460F4616469946DDF820802B681C680A
:102F600037EA04040CBF01240024B4422DD1B8F187
:102F7000FF3FF3D0B8F1000F05D0FEF755FEA0EBF0
:102F800009004045EAD92A6802F10C0353E8003FE2
:102F900023F4D0730C3242E800310029F3D12A68BF
:102FA00002F1140353E8003F23F00103143242E816
:102FB00000310029F3D1202385F83D3085F83E30DB
:102FC000002385F83C30032000E00020BDE8F883B2
:102FD00058B310B5044690F83D300BB3242384F861
:102FE0003D302268D36823F40053D3602046FFF7B6
:102FF00025FF2268136923F4904313612268536903
:1030000023F02A0353612268D36843F40053D3604A
:1030100000202064202384F83D3084F83E3010BD29
:1030200080F83C30FEF7BAFCD8E7012070472DE964
:10303000F04182B01E4690F83D30DBB2202B54D1D7
:1030400004460D469046002953D0002A53D090F8EC
:103050003C30012B51D0012380F83C300023036425
:10306000212380F83D30FEF7DFFD0746A4F82480D9
:10307000A4F82680A368B3F5805F05D04FF0000860
:10308000002384F83C3012E0236913B14FF00008AC
:10309000F6E7A8460025F3E738F8023B2268C3F3B9
:1030A00008035360E28C92B2013A92B2E284E38C5C
:1030B0009BB273B100963B46002280212046FFF769
:1030C00045FFE0B9002DE7D015F8012B23685A60C1
:1030D000E8E700963B46002240212046FFF736FFF6
:1030E00078B9202384F83D3000E0022002B0BDE82A
:1030F000F0810120FAE70120F8E70220F6E703203B
:10310000F4E70320F2E708B54FF0E0231B6901F074
:1031100003FC012800D108BD00F0C4F9FBE7000062
:10312000EFF305832BB9064B186828B901221A6002
:1031300070476FF0050070474FF0FF30704700BFD9
:1031400048230020EFF3058373B90A4B1B68012B5A
:103150000DD110B50024084BDC77064B02221A6013
:1031600001F028F9204610BD6FF0050070474FF0C0
:10317000FF3070474823002000ED00E0F0B587B035
:1031800000240594EFF305847CBB70B32AB3156863
:10319000936903B918235C1E372C4AD8546814F07D
:1031A000010F48D1566976B14FEA960C946834B154
:1031B000D768B7F5C07F02D3176907B1C6B92CB17C
:1031C0004FF0FF340EE04FF0800CEFE7D4688CB97D
:1031D000146994B14FF0FF3404E01546002418231D
:1031E0004FF0800C012C0AD0ACB1059807B0F0BDAF
:1031F0000124F7E74FF0FF34F4E70024F2E7146905
:1032000092680292019400930B466246294601F0AF
:1032100061F80590E9E705AA019200930B461FFAB1
:103220008CF2294601F093F80128DED000230593A3
:10323000DBE70020DAE70020D8E70000034B03605B
:10324000034B0B6080231360704700BFC821002030
:10325000C81F0020034B0360034B0B604FF48073C7
:1032600013607047481E0020441A002000F1080334
:1032700043604FF0FF328260C3600361002303604C
:10328000704700230361704743684B609A688A6007
:10329000516099600861036801330360704730B47E
:1032A0000D68B5F1FF3F11D000F108031C465B68C3
:1032B0001A68AA42FAD963684B6099608C606160B1
:1032C000086103680133036030BC70470469F2E7AA
:1032D0000369416882688A60416851605A68824225
:1032E00006D0002202611A68013A1A601868704715
:1032F00082685A60F5E7000082B0002301930D4B0D
:103300001B68B3F1FF3F08D04FF0500383F31188DF
:10331000BFF36F8FBFF34F8FFEE74FF0500383F380
:103320001188BFF36F8FBFF34F8F019B002BFCD031
:1033300002B070471400002008480068006880F35D
:1033400008884FF0000080F3148862B661B6BFF3BE
:103350004F8FBFF36F8F00DF00BF000008ED00E06C
:10336000DFF80C00016841F4700101607047000053
:1033700088ED00E04FF0807340F8043C21F001013B
:1033800040F8081C054B40F80C3C40F8202C6FF02E
:10339000020340F8243C4438704700BFF93200086B
:1033A000074B19680868B0E8F04F80F30988BFF34D
:1033B0006F8F4FF0000080F311887047AFF30080EB
:1033C000B06400204FF0500383F31188BFF36F8F78
:1033D000BFF34F8F0B4A136801331360012B00D0EA
:1033E00070474FF0E023D3F8043D13F0FF0FF7D000
:1033F0004FF0500383F31188BFF36F8FBFF34F8FEC
:10340000FEE700BF14000020094B1B6843B94FF0D2
:10341000500383F31188BFF36F8FBFF34F8FFEE725
:10342000013B034A13600BB983F31188704700BF57
:103430001400002000000000000000000000000058
:10344000EFF30980BFF36F8F154B1A681EF0100F52
:1034500008BF20ED108A20E9F04F10602DE9090027
:103460004FF0500080F31188BFF34F8FBFF36F8F81
:1034700001F032F94FF0000080F3118809BC19689F
:103480000868B0E8F04F1EF0100F08BFB0EC108ACB
:1034900080F30988BFF36F8F704700BFAFF30080E0
:1034A000B064002008B54FF0500383F31188BFF3D8
:1034B0006F8FBFF34F8F00F0E1FF28B14FF0E02393
:1034C0004FF08052C3F8042D002383F3118808BD08
:1034D0004FF0E022002313619361054B1B680549FF
:1034E000A1FB03139B09013B536107231361704741
:1034F00008000020D34D62104FF0E023D3F8002DD8
:103500003D4B9A421CD04FF0E023D3F8002D3B4BAB
:103510009A421ED030B583B0394B1A78D2B201929C
:10352000FF221A701B78DBB28DF803309DF8033050
:1035300003F05003334A1370334B07221A601BE029
:103540004FF0500383F31188BFF36F8FBFF34F8F9A
:10355000FEE74FF0500383F31188BFF36F8FBFF383
:103560004F8FFEE7284A1368013B13609DF8033034
:103570005B00DBB28DF803309DF8033013F0800F51
:10358000F0D1214B1B68032B08D04FF0500383F37D
:103590001188BFF36F8FBFF34F8FFEE71B021A4AEC
:1035A000136003F4E0631360019BDBB2144A1370F1
:1035B0004FF0E024D4F8203D43F47003C4F8203DDC
:1035C000D4F8203D43F07043C4F8203DFFF780FF5E
:1035D00000250E4B1D60FFF7C3FED4F8343F43F0C7
:1035E0004043C4F8343FFFF7A7FE01F075F8FFF73A
:1035F00083FE284603B030BD71C20F4170C20F4137
:1036000000E400E0502300204C23002014000020A0
:10361000EFF305830F2B0FD9114A9B5CDBB2114AE4
:1036200012789A4208D94FF0500383F31188BFF300
:103630006F8FBFF34F8FFEE74FF0E023D3F80C3DC1
:1036400003F4E063084A1268934208D94FF050032C
:1036500083F31188BFF36F8FBFF34F8FFEE770477F
:10366000F0E300E0502300204C230020124A12F027
:10367000070F1ED0D11D21F00701C1F5705313446F
:103680000A460E480260002141601344083B23F0C3
:1036900007030B48036059601960991A5160136061
:1036A000084B1960084B1960084B4FF000421A6034
:1036B00070474FF47053E4E7742300206C2300201C
:1036C000682300206023002064230020542300206E
:1036D000164B1A461B688342FBD3516802EB010C60
:1036E000844509D0416800EB010C634509D00360B3
:1036F000904219D0106070474068014451601046F4
:10370000F0E710B40A4C2468A3420BD05B6819445C
:10371000416013681B680360904200D010605DF840
:10372000044B70470460F7E7704700BF6C2300202C
:103730006823002038B5044600F092FE384B1B6821
:10374000B3B1384B1B681C4250D1002C50D004F14F
:10375000080214F0070F02D022F007020832002AF4
:1037600055D0314B1B68934253D330490C6804E069
:10377000FFF77CFFE5E721461C466368934202D2CF
:103780002368002BF7D1264B1B68A34243D00D685A
:10379000083523680B6063689B1A102B10D9A0189A
:1037A00010F0070F08D04FF0500383F31188BFF3D8
:1037B0006F8FBFF34F8FFEE743606260FFF788FFB4
:1037C000626819490B689B1A0B60194909688B429A
:1037D00001D217490B60134B1B681343636000232E
:1037E0002360144A13680133136002E0002500E0EF
:1037F000002500F0CFFE15F0070F0ED04FF050035C
:1038000083F31188BFF36F8FBFF34F8FFEE700255F
:10381000EFE70025EDE70025EBE7284638BD00BFC0
:103820006823002054230020642300206C23002000
:10383000602300205C230020002834D038B50446E3
:10384000A0F1080550F8043C174A1268134208D149
:103850004FF0500383F31188BFF36F8FBFF34F8F87
:10386000FEE750F8081C41B14FF0500383F3118874
:10387000BFF36F8FBFF34F8FFEE723EA020340F8D9
:10388000043C00F0EDFD54F8041C084A13680B4496
:1038900013602846FFF71CFF054A136801331360C5
:1038A00000F078FE38BD70475423002064230020C8
:1038B0005823002010B50446FFF784FDA26BE36B8C
:1038C0009A4204D00024FFF79FFD204610BD01243A
:1038D000F9E710B50446FFF775FDA36B23B9012482
:1038E000FFF792FD204610BD0024F9E770B50446AD
:1038F0001546866B026C5AB903681BB1002001366D
:10390000A66370BD806801F017F80023A360F6E796
:103910006DB94068FDF72AF96368226C134463604F
:10392000A268934219D3236863602846E7E7C0681A
:10393000FDF71CF9E368226C51429B1AE360226890
:10394000934202D2A3680B44E360022D01D0002011
:10395000D5E726B1013E0020D1E72846CFE7002079
:10396000CDE70346026C6AB110B50846D968114428
:10397000D9609C68A14201D31968D960D968FDF764
:10398000F5F810BD704738B50546FFF71BFD95F8F3
:10399000454064B201E0013C64B2002C0ADD6B6A70
:1039A00043B105F1240000F01DFF0028F3D000F022
:1039B000ADFFF0E7FF2385F84530FFF725FDFFF762
:1039C00001FD95F8444064B201E0013C64B2002C72
:1039D0000ADD2B6943B105F1100000F003FF002858
:1039E000F3D000F093FFF0E7FF2385F84430FFF7B2
:1039F0000BFD38BD38B5E0B10D460446FFF7E2FCDB
:103A00002368E26B216C01FB0230A0600020A06300
:103A10006360013A02FB0133E360FF2384F8443022
:103A200084F84530FDB9236963B9FFF7EDFC012047
:103A300038BD4FF0500383F31188BFF36F8FBFF38E
:103A40004F8FFEE704F1100000F0CCFE0028ECD010
:103A50004FF0E0234FF08052C3F8042DBFF34F8F97
:103A6000BFF36F8FE1E704F11000FFF7FFFB04F1F4
:103A70002400FFF7FBFBD8E738B51D46049C0B4636
:103A800049B92460E063236401212046FFF7B2FFB7
:103A900084F84C5038BD2260F4E740B94FF0500331
:103AA00083F31188BFF36F8FBFF34F8FFEE710B51D
:103AB00084B01C46844653B192B189B94FF050038B
:103AC00083F31188BFF36F8FBFF34F8FFEE74FF083
:103AD000500383F31188BFF36F8FBFF34F8FFEE75F
:103AE0006AB150230393039B502B13D04FF0500324
:103AF00083F31188BFF36F8FBFF34F8FFEE7002969
:103B0000EFD04FF0500383F31188BFF36F8FBFF3F3
:103B10004F8FFEE7039B012384F8463000949DF805
:103B200018306046FFF7A8FF204604B010BDF0B57E
:103B300085B0019288B10F461D460446B1B1022DF1
:103B400020D1E36B012B1DD04FF0500383F311887C
:103B5000BFF36F8FBFF34F8FFEE74FF0500383F338
:103B60001188BFF36F8FBFF34F8FFEE7036C002BFD
:103B7000E5D04FF0500383F31188BFF36F8FBFF38D
:103B80004F8FFEE700F0C8FE064658B9019B002B98
:103B900048D04FF0500383F31188BFF36F8FBFF30A
:103BA0004F8FFEE700263DE02A4639462046FFF7C4
:103BB0009DFE636A7BB948B14FF0E0234FF080521D
:103BC000C3F8042DBFF34F8FBFF36F8FFFF71CFCBB
:103BD000012005B0F0BD04F1240000F003FE002830
:103BE000F4D04FF0E0234FF08052C3F8042DBFF320
:103BF0004F8FBFF36F8FE9E7FFF706FC0020E8E780
:103C000002A800F035FE012619E0002384F84430B4
:103C100021E0002384F8453023E02046FFF7B3FE7F
:103C200000F0B8FCFFF7CEFBA26BE36B9A42BBD36C
:103C3000022DB9D0019B002BDED0002EE0D0FFF783
:103C4000E3FB00F00DFCFFF7BDFB94F8442052B2FB
:103C5000B2F1FF3FD9D094F8452052B2B2F1FF3F04
:103C6000D7D0FFF7D1FB01A902A800F00DFED8B90B
:103C70002046FFF71FFE0028CFD0019904F1100065
:103C800000F07CFD2046FFF77EFE00F083FC00285C
:103C9000C8D14FF0E0234FF08052C3F8042DBFF39A
:103CA0004F8FBFF36F8FBDE72046FFF76CFE00F02C
:103CB00071FC00208DE72DE9F84390B10F461646C0
:103CC0001C460546B1B1022C20D1EB6B012B1DD057
:103CD0004FF0500383F31188BFF36F8FBFF34F8F03
:103CE000FEE74FF0500383F31188BFF36F8FBFF3EC
:103CF0004F8FFEE7036C002BE5D04FF0500383F3AA
:103D00001188BFF36F8FBFF34F8FFEE7FFF780FC83
:103D1000EFF311884FF0500383F31188BFF36F8FD7
:103D2000BFF34F8FAA6BEB6B9A4206D3022C04D0E1
:103D3000002088F31188BDE8F88395F845904FFA84
:103D400089F9AB6B224639462846FFF7CFFDB9F11A
:103D5000FF3F06D009F101035BB285F84530012031
:103D6000E7E76B6A0BB90120E3E705F1240000F0F7
:103D700039FD18B126B101203060DAE70120D8E71B
:103D80000120D6E7F0B585B0019290B10F46044608
:103D9000C1B100F0C1FD064600BB019B002B5ED007
:103DA0004FF0500383F31188BFF36F8FBFF34F8F32
:103DB000FEE74FF0500383F31188BFF36F8FBFF31B
:103DC0004F8FFEE7036C002BE3D04FF0500383F3DB
:103DD0001188BFF36F8FBFF34F8FFEE700263EE0E1
:103DE00039462046FFF7BDFD013DA563236923B990
:103DF000FFF70AFB012005B0F0BD04F1100000F050
:103E0000F1FC0028F4D04FF0E0234FF08052C3F8CB
:103E1000042DBFF34F8FBFF36F8FE9E7FFF7F4FA7D
:103E20000020E8E702A800F023FD012621E000239E
:103E300084F8443029E0002384F845302BE0204604
:103E4000FFF7A1FD00F0A6FB09E02046FFF79BFD70
:103E500000F0A0FB2046FFF73CFD00283FD1FFF714
:103E6000B1FAA56B002DBBD1019B002BD6D0002E43
:103E7000D8D0FFF7C9FA00F0F3FAFFF7A3FA94F8E5
:103E800044305BB2B3F1FF3FD1D094F845305BB220
:103E9000B3F1FF3FCFD0FFF7B7FA01A902A800F0B6
:103EA000F3FC0028D1D12046FFF713FD0028C6D02F
:103EB000019904F1240000F061FC2046FFF763FD46
:103EC00000F068FB0028CAD14FF0E0234FF0805289
:103ED000C3F8042DBFF34F8FBFF36F8FBFE70020F0
:103EE00089E700000023072B0CD8074A52F833203B
:103EF0000AB10133F7E7044A42F8331002EBC30278
:103F000050607047704700BF745F002070B5044672
:103F10000D461646FFF756FA94F844305BB2B3F1FB
:103F2000FF3F0DD094F845305BB2B3F1FF3F0BD0AB
:103F3000FFF76AFAA36B5BB12046FFF724FD70BD63
:103F4000002384F84430EDE7002384F84530EFE7A0
:103F50003246294604F1240000F028FCECE700007A
:103F6000084B1B681B6823B9074B4FF0FF321A60E0
:103F70007047044B1B68DB68DB685A68024B1A60A9
:103F8000704700BF24600020BC5F00202DE9F0478F
:103F900080460D4617469946089EDDF824A00A9CE7
:103FA0009200A521206B01F075FA236B07F1804286
:103FB000013A03EB820727F00707002D61D04FF08D
:103FC000000CBCF10F0F09D815F80C3004EB0C02F3
:103FD00082F8343013B10CF1010CF2E7002384F8BD
:103FE0004330372E00D93726E662E6640025256582
:103FF000201DFFF746F904F11800FFF742F924618C
:10400000C6F13806A6616462C4F8785184F87C5120
:104010004FF49072294604F1580001F03BFA1B4B13
:10402000E36503F168022266D03363660122002350
:10403000C4E93C2343F20E33A4F8F8304AF6CD33FA
:10404000A4F8FA3041F23423A4F8FC304EF26D6348
:10405000A4F8FE304DF6EC63A4F800310523A4F873
:1040600002310B23A4F804314A4641463846FFF793
:1040700081F92060BAF1000F01D0CAF80040BDE814
:10408000F087002384F83430ABE700BFE065002000
:1040900038B5002407E004EB840293000E4818446E
:1040A000FFF7E4F80134372CF5D90C4D2846FFF71B
:1040B000DDF80B4C2046FFF7D9F80A48FFF7D6F891
:1040C0000948FFF7D3F80948FFF7D0F8084B1D60FF
:1040D000084B1C6038BD00BF506000203C600020D1
:1040E000286000200C600020F85F0020E05F0020C6
:1040F000246000202060002010B50446FFF762F91C
:10410000224A136801331360214B1B685BB1214BBA
:104110001B686BB91E4B1B68DA6AE36A9A4207D8C0
:104120001B4B1C6004E01A4B1C601368012B29D048
:10413000194A1368013313606364E06A174B1B6804
:10414000984201D9154B186000EB8000211D144BDB
:1041500003EB8000FFF798F8FFF756F90D4B1B684B
:104160007BB10B4B1B68DA6AE36A9A4209D24FF0C3
:10417000E0234FF08052C3F8042DBFF34F8FBFF3FD
:104180006F8F10BDFFF784FFD2E700BFDC5F002018
:10419000B0640020D05F0020C05F0020D45F00200A
:1041A0005060002010B50446583001F0D7F994F85B
:1041B0007D3163B1012B11D0022B0ED04FF0500393
:1041C00083F31188BFF36F8FBFF34F8FFEE7206B30
:1041D000FFF732FB2046FFF72FFB10BD2046FFF70D
:1041E0002BFBFAE70F4B1B68D3B110B5FFF7EAF8CA
:1041F0000D4BDB68DC68201DFFF76AF80B4A13687B
:10420000013B1360074A1368013B1360FFF7FCF89A
:104210002046FFF7C7FF034B1B68002BE6D110BDFC
:10422000704700BFF45F0020F85F0020DC5F0020D3
:1042300008B5FFF7D7FF074B1B68012BF9D94FF0E3
:10424000E0234FF08052C3F8042DBFF34F8FBFF32C
:104250006F8FEEE75060002070B504460D46174B97
:104260001E68174B18680430FFF732F8B4F1FF3FAF
:104270000DD03444124B1B685C60A64210D9114B20
:1042800018680F4B19680431FFF709F870BD002D4D
:10429000EFD00B4B196804310B48FEF7F5FFF5E73B
:1042A0000A4B1868064B19680431FEF7F8FF084BF3
:1042B0001B68A342EAD9064B1C60E7E7D85F0020E1
:1042C000B064002020600020E05F00202460002017
:1042D000BC5F002030B587B00B9C8CB10C9DC5B184
:1042E0004FF4C0750495049DB5F5C07F1AD04FF00A
:1042F000500383F31188BFF36F8FBFF34F8FFEE737
:104300004FF0500383F31188BFF36F8FBFF34F8FCC
:10431000FEE74FF0500383F31188BFF36F8FBFF3B5
:104320004F8FFEE7049D0C9D2C63022485F87D4190
:1043300000240394029505AC01940A9C0094FFF7B5
:1043400025FE0C98FFF7D8FE059807B030BD2DE983
:10435000F04385B00746884614461E469000FFF796
:10436000E9F910B381464FF4C070FFF7E3F9054651
:10437000A8B1C0F83090002380F87D3103930290FB
:104380000D9B01930C9B00933346224641463846D1
:10439000FFF7FCFD2846FFF7AFFE012007E0484687
:1043A000FFF74AFA4FF0FF3001E04FF0FF3005B061
:1043B000BDE8F08310B588B000240594069407AAE0
:1043C00006A905A8FEF73AFF059B0293069B0193F9
:1043D00000942346079A1A491A48FFF77BFF1A4BA5
:1043E0001860E8B100F05CFB01281AD14FF05003CF
:1043F00083F31188BFF36F8FBFF34F8F134B1B688D
:104400005833134A1360134B4FF0FF321A60124BAC
:1044100001221A60114B00221A60FFF76DF803E0C9
:104420000020B0F1FF3F01D008B010BD4FF05003A5
:1044300083F31188BFF36F8FBFF34F8FFEE700BF89
:104440001CB9000831420008B85F0020B0640020A9
:1044500024000020BC5F0020D05F0020D85F002037
:10446000024A136801331360704700BFB45F002035
:10447000014B1868704700BFD85F0020F8B53A4B71
:104480001B68002B69D1394B1D6801351D60C5B90A
:10449000374B1B681B6843B14FF0500383F31188FF
:1044A000BFF36F8FBFF34F8FFEE7314A1168314B77
:1044B000186810601960304A136801331360FFF701
:1044C0004FFD2E4B1B68AB423DD900272C4B1B6880
:1044D000DB6A03EB83039A002A4B9B58012B00D91C
:1044E0000127294B1B68002B3CD001273AE001270C
:1044F0001F4B1B681B6843B31D4B1B68DB68DC68E4
:1045000063689D4226D3261D3046FEF7E1FEA36A6E
:104510001BB104F11800FEF7DBFEE36A1B4A1268C8
:10452000934201D9194A136003EB83039A00314681
:1045300014481044FEF7A8FEE26A114B1B68DB6AC0
:104540009A42D4D2D4E70027D2E70C4B4FF0FF3287
:104550001A60BBE7094A1360B8E70D4A13680133D4
:10456000136000273846F8BDB45F0020D85F0020F4
:104570002460002020600020C45F0020BC5F002079
:10458000B064002050600020C85F0020D45F00208D
:10459000CC5F002038B5354B1B6843B94FF0500352
:1045A00083F31188BFF36F8FBFF34F8FFEE7FEF7E2
:1045B00009FF2E4B1A68013A1A601B68002B4FD175
:1045C0002B4B1B680BB900244BE00024294B1B68C4
:1045D0001BB3284BDB68DC6804F11800FEF778FE9B
:1045E000251D2846FEF774FEE06A234B1B6898429F
:1045F00001D9214B186000EB800029461F4B03EBCB
:104600008000FEF741FEE26A1D4B1B68DB6A9A429E
:10461000DCD31C4B01221A60D8E70CB1FFF7A0FCD9
:10462000194B1C6884B9174B1C68D4B14FF0E023B8
:104630004FF08052C3F8042DBFF34F8FBFF36F8F3D
:1046400001240EE0013C07D0FFF718FF0028F9D045
:104650000C4B01221A60F5E70B4B00221A60E2E7CF
:104660000024FEF7D1FE204638BD00BFB45F002015
:10467000DC5F00200C600020D45F00205060002030
:10468000B0640020C85F0020CC5F002010B5A8B146
:104690000446104B1B6843B14FF0500383F311885D
:1046A000BFF36F8FBFF34F8FFEE7FFF7D9FE0021F7
:1046B0002046FFF7D1FDFFF76DFF48B94FF0E0232B
:1046C0004FF08052C3F8042DBFF34F8FBFF36F8FAD
:1046D00010BD00BFB45F0020224B1B681BB1224BF2
:1046E00001221A607047204B00221A601F4B1B6882
:1046F00003EB83018A001E498A585AB90BB1013B6A
:10470000F6E74FF0500383F31188BFF36F8FBFF3C9
:104710004F8FFEE7084603EB83018A00024451688D
:104720004968516003EB830C4FEA8C020832024463
:1047300091420FD003EB830291000D4A0A44526864
:10474000D1680C4A116009490B60136858330A4A52
:1047500013607047486862469100054A0A445060F9
:10476000E8E700BFB45F0020C85F0020D45F0020EE
:1047700050600020B06400202400002058B110B523
:104780000C46094A11681831FEF789FD01212046BF
:10479000FFF762FD10BD4FF0500383F31188BFF3A4
:1047A0006F8FBFF34F8FFEE7B064002038B570B154
:1047B0000D4614460A4A11681831FEF765FD0CB122
:1047C0004FF0FF3521462846FFF746FD38BD4FF034
:1047D000500383F31188BFF36F8FBFF34F8FFEE752
:1047E000B064002038B5C368DC6824B304F1180550
:1047F0002846FEF76DFD184B1B682BBB251D284670
:10480000FEF766FDE06A154B1B68984201D9134B11
:10481000186000EB80002946114B03EB8000FEF787
:1048200033FDE26A0F4B1B68DB6A9A4211D9012003
:104830000D4B186038BD4FF0500383F31188BFF360
:104840006F8FBFF34F8FFEE729460848FEF71CFD28
:10485000E7E70020EEE700BFB45F0020D45F002050
:1048600050600020B0640020C85F00200C60002071
:10487000034B1B680360034B1B684360704700BF1A
:10488000C45F0020D85F0020F8B5C8B10C460546CB
:10489000F9B1FEF797FD1B4B19686B68C81A2268BF
:1048A000B2F1FF3F26D0184E36682F68B74201D0CC
:1048B0008B4224D9824215D80023236001241AE0B8
:1048C0004FF0500383F31188BFF36F8FBFF34F8F07
:1048D000FEE74FF0500383F31188BFF36F8FBFF3F0
:1048E0004F8FFEE75B1A134423602846FFF7C0FF93
:1048F000002400E00024FEF787FD2046F8BD0124D7
:10490000F9E700BFD85F0020C45F0020014B0122FF
:104910001A607047C85F0020054B1B6833B1054B18
:104920001B680BB1002070470220704701207047C0
:10493000D05F0020B45F002000283BD038B504468B
:104940001E4B1B68834208D04FF0500383F311883D
:10495000BFF36F8FBFF34F8FFEE7036D43B94FF087
:10496000500383F31188BFF36F8FBFF34F8FFEE7C0
:10497000013B0365C16AC26C91421DD00BB100209E
:1049800038BD051D2846FEF7A3FCE06CE062C0F1CF
:104990003803A3610A4B1B68984201D9084B186081
:1049A00000EB80002946074B03EB8000FEF76CFC10
:1049B0000120E5E7002070470020E1E7B064002017
:1049C000D45F002050600020064B1A6813682BB992
:1049D0000123036023B9D368186870470023F8E700
:1049E00000207047B465002008B541600061914225
:1049F0000CD8D21A83699A4201D3012008BD011D47
:104A0000094B1868FEF74BFC0020F7E79A4201D2E9
:104A1000994206D2011D054B1868FEF740FC0020A4
:104A2000ECE70120EAE700BFB0650020B465002094
:104A300030B583B0FEF7C6FC114B1B681BB1FEF707
:104A4000E3FC03B030BD0F4D2846FEF70FFC0E4CC3
:104A50002046FEF70BFC0D4B1D600D4B1C60002328
:104A600000930C4B0C4A10210A20FFF716F8044B58
:104A700018600028E3D00949FFF734FADFE700BFE8
:104A8000AC650020CC650020B8650020B46500202E
:104A9000B0650020B46400200465002024B900083B
:104AA00010B588B0FFF7C4FF124B1B68CBB10024D0
:104AB0000594069407AA06A905A8FEF7CBFB059B5B
:104AC0000293069B0193022300932346079A0A4907
:104AD0000A48FFF7FFFB0A4B186010B1012008B02D
:104AE00010BD4FF0500383F31188BFF36F8FBFF3F6
:104AF0004F8FFEE7AC6500202CB90008054E00087A
:104B0000A8650020B8B19C4603461848006858B311
:104B100000B585B000910192029305291CDCFFF7D6
:104B2000FBFE022810D000231A4669460F48006891
:104B3000FEF7FDFF15E04FF0500383F31188BFF33C
:104B40006F8FBFF34F8FFEE70023069A6946074831
:104B50000068FEF7ECFF04E0002362466946FFF7B9
:104B6000AAF805B05DF804FB00207047AC65002092
:104B700070B582B01B4B1B681A6862B3DB681E6895
:104B8000DC68251D2846FEF7A3FB236A20469847CC
:104B900094F8283013F0040FECD0A36933449E42FC
:104BA00007D26360246129460E4B1868FEF777FB35
:104BB000E0E7002100910B4632462046FFF7A2FFB6
:104BC0000028D7D14FF0500383F31188BFF36F8FC4
:104BD000BFF34F8FFEE7044A106802490860136074
:104BE00002B070BDB4650020B065002038B5054640
:104BF000FFF73EFC0446074B1B68834205D80023A1
:104C00002B60044B1C60204638BDFFF7B1FF012329
:104C10002B60F6E7A465002070B582B006460D460D
:104C200017490968C968CC68201DFEF751FB94F844
:104C300028C01CF0040F08D12CF0010C84F828C007
:104C4000236A2046984702B070BDA16933462A46C0
:104C500031442046FFF7C8FE0028F1D00021009122
:104C60000B4632462046FFF74DFF0028E8D14FF0B3
:104C7000500383F31188BFF36F8FBFF34F8FFEE7AD
:104C8000B465002070B582B006460C46FFF7E8FB1D
:104C900001A8FFF7ABFF019B33BB0546E4B9B04267
:104CA00013D22246711B124B1868FFF72FF9FFF73A
:104CB00071FCD8B94FF0E0234FF08052C3F8042DB7
:104CC000BFF34F8FBFF36F8F10E0FFF763FC2946F0
:104CD0003046FFF7A1FF09E0064A126812680AB9D8
:104CE0000124DEE71C46DCE7FFF754FC02B070BD90
:104CF000AC650020B065002010B588B002E0049BD0
:104D0000002B0FDA002204A93D4B1868FFF73AF890
:104D1000002873D0049B002BF1DA07990698059BB5
:104D20009847ECE7069C636913B1201DFEF7D0FAA3
:104D300003A8FFF75BFF049B092BE3D8DFE803F030
:104D40000505053037500505303794F8283043F015
:104D5000010384F82830059BA169024619442046C6
:104D6000FFF742FE0028CDD0236A2046984794F8EA
:104D7000283013F0040FC5D0A269002100910B4622
:104D8000059802442046FFF7BDFE0028BAD14FF037
:104D9000500383F31188BFF36F8FBFF34F8FFEE78C
:104DA00094F8283023F0010384F82830AAE794F817
:104DB000283043F0010384F828300599A16131B10E
:104DC0000346024601442046FFF70EFE9AE74FF0E5
:104DD000500383F31188BFF36F8FBFF34F8FFEE74C
:104DE00094F8283013F0020F04D023F0010384F864
:104DF000283087E72046FEF71FFD83E708B010BD87
:104E0000AC65002000B583B001A8FFF7DDFD019976
:104E1000FFF738FFFFF770FFF6E708B5FCF77EF8FD
:104E2000FCF7B8F84FF4FA70FFF730FCF8E708B574
:104E3000FCF7F4FAFCF7FEFA6420FFF727FCF9E729
:104E4000FEE7FEE72DE9F041ACB0FCF73DF910EECE
:104E5000104AFCF751F910EE105A0020FCF708F93F
:104E600010EE106A0120FCF703F910EE107A022010
:104E7000FCF7FEF810EE108A0320FCF7F9F810EEAC
:104E8000100AFBF701FBCDE90A014046FBF7FCFAEB
:104E9000CDE908013846FBF7F7FACDE906013046BF
:104EA000FBF7F2FACDE904012846FBF7EDFACDE96C
:104EB00002012046FBF7E8FACDE90001064A80210D
:104EC0000CA800F05BFA0CA90020FCF7A3F8642002
:104ED000FFF7DCFBB9E700BF34B900082DE9F04764
:104EE000089D0C46002B4ED194468C458646B2FA5E
:104EF00082F262D94AB1C2F12003914020FA03F351
:104F00000CFA02FC194300FA02FE4FEA1C471FFA92
:104F10008CF6B1FBF7F44FEA1E4307FB141143EA8A
:104F2000014304FB06F199420AD91CEB030304F187
:104F3000FF3080F01281994240F20F81023C6344BD
:104F4000591A1FFA8EF3B1FBF7F007FB101143EA71
:104F5000014300FB06F69E420AD91CEB030300F155
:104F6000FF3180F0FC809E4240F2F98063440238B9
:104F70009B1B40EA044000211DB1D3400022C5E93B
:104F80000032BDE8F0878B4205D90DB1C5E90001BB
:104F900000210846F5E7B3FA83F1002946D1A34280
:104FA00002D39042C0F0F080861A64EB0303012024
:104FB000002DE6D0C5E90063E3E7002A40F09080C9
:104FC000A1EB0C044FEA1C481FFA8CF70121B4FB3B
:104FD000F8F64FEA1E4308FB164443EA044307FB76
:104FE00006F0984208D91CEB030306F1FF3402D205
:104FF000984200F2CD8026461C1A1FFA8EF3B4FBAD
:10500000F8F008FB104443EA044300FB07F79F4213
:1050100008D91CEB030300F1FF3402D29F4200F2D7
:10502000B0802046DB1B40EA0640A5E7C1F1200620
:105030008B4022FA06F71F4320FA06FC04FA01F31C
:1050400043EA0C03F44000FA01F8380C4FEA134924
:10505000B4FBF0FE1FFA87FC00FB1E4449EA04443F
:105060000EFB0CF9A14502FA01F20AD93C190EF126
:10507000FF3A80F08480A14540F28180AEF1020EBB
:105080003C44A4EB09041FFA83F9B4FBF0F300FBE2
:10509000134449EA044403FB0CFCA44507D93C191A
:1050A00003F1FF3067D2A44565D9023B3C4443EA93
:1050B0000E40A0FB0293A4EB0C049C42CE469C46FF
:1050C00051D34ED055B1B8EB0E0364EB0C0404FA87
:1050D00006F6CB401E43CC40C5E90064002150E7F2
:1050E000C2F1200320FA03F10CFA02FC24FA03F3C4
:1050F00094400C434FEA1C4800FA02FE1FFA8CF75A
:10510000B3FBF8F008FB1031230C43EA014300FB2A
:1051100007F1994208D91CEB030300F1FF362CD2AA
:1051200099422AD9023863445B1AA4B2B3FBF8F15E
:1051300008FB113344EA034401FB07F3A34208D9F7
:105140001CEB040401F1FF3613D2A34211D902393A
:105150006444E41A41EA004139E70446F0E60846AF
:1051600006E7C845AED2B9EB020E63EB070C013877
:10517000A8E73146EDE7034699E73046D4E7D6463F
:105180007FE7634402384DE70646234608460FE7AB
:10519000023E634430E700BF024A0349034800F07F
:1051A000C9B800BF18000020C97A000828000020F4
:1051B0000C4B4168994210B5044601D002F084FCC2
:1051C000A168094B994202D0204602F07DFCE168BB
:1051D000064B994204D02046BDE8104002F074BC52
:1051E00010BD00BFE065002048660020B0660020CA
:1051F0002DE9F843314C324B3248DFF8DC90DFF8D0
:10520000DC80314F1860002529460423082204F170
:105210005C002E4EE360C4E90055C4E90455A56066
:105220006566A56100F036F904F15800C4E9074944
:10523000C4E90987E66200F02FFA2946244B636728
:10524000082204F1C400C4E91A55C4E91E552567B3
:10525000C4F8CC50C4F8805000F01CF904F1680385
:1052600004F1C000C4F88430C4E92298C4E924766B
:1052700000F012FA174BC4F8DC30294604F596709A
:105280000822C4E93455C4E93855C4F8D850C4F8E4
:105290003451C4F8E85000F0FDF804F1D003C4E93B
:1052A0003D87C4F8F09004F59470C4F8FC60C4F82D
:1052B000EC30BDE8F84300F0EFB900BFE065002036
:1052C0001867002099510008695400088D5400089F
:1052D00009000100120002000554000829540008CA
:1052E00010B504460A4800F0DBF9636B23B9094B9B
:1052F000094A1B68626323B1BDE81040044800F00E
:10530000D1B9FFF775FFBDE81040014800F0CAB9F8
:105310002867002018670020B1510008014800F0FC
:10532000BFB900BF28670020014800F0BBB900BF2B
:10533000286700202DE9F84380460F4616464FF0B7
:105340000009D6E90154013D11D4A389012B05F1CF
:10535000FF3508D9B4F90E300133214603D0404659
:10536000B84749EA00096B1C04F16804EDD13668BE
:10537000002EE6D14846BDE8F88300BF0CB410B556
:105380001F4B00291C689CB035DB4FF40273ADF84D
:105390001430029006901FAB18D001394FF6FF72FF
:1053A00004910791ADF8162002A91E9A0193204698
:1053B00000F0AAFD421C01DA8B232360029B00222D
:1053C0001A701CB0BDE8104002B070474FF6FF7273
:1053D00004910791ADF8162002A91E9A0193204668
:1053E00000F092FD431C01DA8B2323601CB0BDE862
:1053F000104002B070478B2323604FF0FF30F5E779
:105400002400002010B50C46B1F90E1000F0EAF8A7
:10541000002803DB236D0344236510BDA38923F417
:105420008053A38110BD00BF2DE9F0410C46B1F9B6
:105430000C101F46CB05054616460BD421F48051AF
:10544000A1813B46B4F90E1032462846BDE8F04132
:1054500000F0DEB8B4F90E100223002200F0ACF820
:10546000B4F90C10EAE700BF10B50C46B1F90E1004
:1054700000F0A2F8B4F90C30421C0EBF23F48053A4
:1054800043F480532065A38110BD00BFB1F90E1015
:1054900000F052B8830730B547D0541E002A3ED0E2
:1054A000CAB2034601E0013C39D303F8012B9D0742
:1054B000F9D1032C2CD9CDB205EB05250F2C05EB2A
:1054C000054535D9A4F1100222F00F0C03F1100E9E
:1054D000E6444FEA121C1A46156055609560D56087
:1054E00010327245F8D10CF1010214F00C0F03EBED
:1054F000021204F00F0C13D0ACF1040323F00303E9
:105500000433134442F8045B9A42FBD10CF00304C9
:105510002CB1C9B21C4403F8011B9C42FBD130BD25
:1055200064461346002CF4D1F9E703461446C0E75D
:105530001A46A446E0E700BF38B5074D00220446EE
:1055400008462A60FCF7E6FA431C00D038BD2B68F9
:10555000002BFBD0236038BD1C670020154B1B6857
:10556000834225D0416C70B5054681B100268C5927
:105570003CB121462468284600F002F9002CF8D1FD
:10558000696C0436802EF2D1284600F0F9F8A96B38
:1055900011B1284600F0F4F8E96C11B1284600F08A
:1055A000EFF86B6B1BB12846BDE87040184770BD23
:1055B000704700BF2400002038B50C46084D8446D3
:1055C000114620461A4600232B606446FCF7ACFACD
:1055D000431C00D038BD2B68002BFBD0236038BDA6
:1055E0001C67002038B50C46084D844611462046FD
:1055F0001A4600232B606446FCF76EFA431C00D069
:1056000038BD2B68002BFBD0236038BD1C67002001
:1056100038B50C46084D8446114620461A460023EC
:105620002B606446FCF768FA431C00D038BD2B6839
:10563000002BFBD0236038BD1C670020014B18688D
:10564000704700BF2400002070B50F4B0F4DAB42D8
:10565000A3EB050607D0B610002455F8043B01342F
:105660009847A642F9D805F081FF094D094B5E1B0A
:10567000AB424FEAA60606D0002455F8043B01349D
:105680009847A642F9D870BD84BD000884BD0008C3
:1056900084BD00088CBD0008704700BF704700BF84
:1056A000704700BF704700BF024B13B1024800F0C3
:1056B00005B8704700000000B57D000800230146D2
:1056C0001A46184602F0CCBB2DE9F84306460820DE
:1056D000894602F083FBDFF8A4800546304600F0DF
:1056E00007FCD8F808305F6827F00307A7F111041A
:1056F000A4EB09042C44B4FBF5F4013C05FB04F4D1
:10570000A54208DC0021304602F042FBD8F8083000
:105710003B44984205D0304600F0F0FB0020BDE845
:10572000F8836142304602F033FB01300FD0114A5A
:10573000D8F808303F1B47F001075F601368304618
:105740001B1B136000F0DAFB0120BDE8F883002189
:10575000304602F01DFBD8F80820831A0F2BDADD43
:1057600043F001035360044B02491B68C01A0860F0
:10577000D1E700BF306700204C0100205801002015
:1057800000297CD02DE9F0410C46804600F0B0FBAA
:1057900054F8043C764FA4F1080523F00101681881
:1057A000BE684268864222F0030200F08380DE0772
:1057B000426000EB020C33D454F8084CDCF804309F
:1057C0002D1B2144AC6807F1080C644503F001036C
:1057D00064D0D5F80CE0C4F80CE0CEF80840002BFB
:1057E00000F0818041F001036B600160B1F5007F42
:1057F00022D27868CB080122490901338A4002434A
:1058000057F833107A6007EBC302083AC5E9021271
:1058100047F83350CD604046BDE8F04100F06EBB24
:10582000DCF80430DB072BD541F00103B1F5007F34
:1058300044F8043C0160DCD3B1F5206F4FEA5123FA
:1058400053D28B0903F1390003F13802C300F81871
:10585000FB580838984203D163E09B68984204D013
:105860005A6822F003028A42F7D8D868C5E90230A4
:105870008560DD604046BDE8F04100F03FBB704709
:10588000114407F1080C836863453FD0C268DA60B1
:10589000936041F001036B606950A7E7002B61D171
:1058A0000A44D0E90213CB60996042F001036B60B7
:1058B000AA50B0E7DB070A4407D454F8083CED1AB5
:1058C0001A44D5E90213CB60996042F001036B6082
:1058D000284BBD601B6893429DD8274B40461968F2
:1058E000FFF7F2FE97E71144CDE7142B08D9542BAC
:1058F0001FD80B0B03F16F0003F16E02C300A6E784
:1059000003F15C0003F15B02C300A0E741F0010377
:105910003D617D61C5F808C0C5F80CC06B60695079
:1059200079E779689210012404FA02F20A437A6056
:105930009CE7B3F5AA7F06D8CB0B03F1780003F1FF
:105940007702C30083E740F25452934206D88B0C8F
:1059500003F17D0003F17C02C30078E74FF47E730E
:105960007E2274E741F001036B60016053E700BFE2
:105970005801002050010020606700202DE9F04F01
:1059800001F10B05162D85B0064624D8102900F22A
:10599000B18000F0ADFA102518234FF0020CBA4F79
:1059A0003B44A3F108025C68944200F022816368E2
:1059B000E268A16823F00303CA6023443046916083
:1059C0005A6842F001025A60083400F097FA204603
:1059D00005B0BDE8F08F35F0070500F18B80A942D6
:1059E00000F2888000F084FAB5F5FC7FC0F0738186
:1059F0006B0A00F08380042B00F22281AB0903F1D3
:105A0000390C03F1380E4FEACC039F4F3B44A3F10E
:105A100008005C68A04207D10DE0002AE16880F22E
:105A2000E280884207D00C46636823F003035A1BC8
:105A30000F2AF2DDF446DFF864823C69444500F049
:105A4000BF80636823F00309A9EB05030F2B00F364
:105A50004781002BC7E9048880F23181B9F5007FC6
:105A6000D7F804E080F0CC804FEAD90101314FEA49
:105A70005919012303FA09F357F83120A2604EEABD
:105A8000030E07EBC103083BE360C7F804E047F8E7
:105A90003140D4604FEAAC0301209840704534D8BF
:105AA00010EA0E0F07D12CF0030C400010EA0E0F85
:105AB0000CF1040CF9D007EBCC0A5246E146D16850
:105AC0000EE04B6823F00303A3EB050EBEF10F0FAE
:105AD0000C46C96800F3C180BEF1000F80F2E2807D
:105AE0008A42EED109F1010919F0030F02F108020F
:105AF000E5D121E10C233360002468E74FF4007303
