:020000040800F2
:1000000000800120350A0008BD090008BF0900086A
:10001000C1090008C3090008C50900080000000064
:100020000000000000000000000000001121000896
:10003000C709000800000000B1210008571E000891
:10004000850A0008850A0008850A0008850A000854
:10005000850A0008850A0008850A0008850A000844
:10006000850A0008850A0008850A0008850A000834
:10007000850A0008850A0008850A0008850A000824
:10008000850A0008850A0008850A000800000000AB
:10009000000000000000000000000000850A0008C9
:1000A000850A0008C9090008850A0008850A0008B1
:1000B000850A0008850A0008850A0008850A0008E4
:1000C000850A0008850A0008850A0008850A0008D4
:1000D000850A0008850A0008850A0008000000005B
:1000E000850A0008850A0008850A0008000000004B
:1000F000000000000000000000000000850A000869
:1001000000000000850A0008850A0008850A00082A
:1001100000000000000000000000000000000000DF
:10012000850A0008850A0008850A0008850A000873
:10013000850A000800000000000000000000000028
:10014000000000000000000000000000850A000818
:10015000850A0008850A0008850A0008850A000843
:10016000850A0008850A0008000000000000000061
:10017000000000000000000000000000000000007F
:1001800000000000850A00080000000000000000D8
:04019000850A0008D4
:1001A00053B94AB9002908BF00281CBF4FF0FF31DE
:1001B0004FF0FF3000F00CB8ADF1080C6DE904CE43
:1001C00003F0E4FCDDF804E0DDE9022304B070474D
:1001D000704700BF844641EA000313F003036DD16A
:1001E000403A41D351F8043B40F8043B51F8043BFA
:1001F00040F8043B51F8043B40F8043B51F8043B01
:1002000040F8043B51F8043B40F8043B51F8043BF0
:1002100040F8043B51F8043B40F8043B51F8043BE0
:1002200040F8043B51F8043B40F8043B51F8043BD0
:1002300040F8043B51F8043B40F8043B51F8043BC0
:1002400040F8043B51F8043B40F8043B51F8043BB0
:1002500040F8043B51F8043B40F8043B51F8043BA0
:1002600040F8043B403ABDD2303211D351F8043B40
:1002700040F8043B51F8043B40F8043B51F8043B80
:1002800040F8043B51F8043B40F8043B103AEDD2EF
:100290000C3205D351F8043B40F8043B043AF9D240
:1002A000043208D0D2071CBF11F8013B00F8013B13
:1002B00001D30B8803806046704700BF082A13D320
:1002C0008B078DD010F003038AD0C3F10403D21A38
:1002D000DB071CBF11F8013B00F8013B80D331F86C
:1002E000023B20F8023B7BE7043AD9D3013A11F8EC
:1002F000013B00F8013BF9D20B7803704B78437057
:100300008B788370604670470348044B834202D069
:10031000034B03B1184770475005002050050020DB
:10032000000000000548064B1B1AD90F01EBA30182
:10033000491002D0034B03B1184770475005002005
:10034000500500200000000010B5064C237843B98A
:10035000FFF7DAFF044B13B10448AFF30080012329
:10036000237010BD500500200000000080430008ED
:1003700008B5054B1BB105490548AFF30080BDE842
:100380000840FFF7CFBF00BF000000005405002069
:100390008043000830B58BB0002405940694079480
:1003A0000894099401941D4B1A6B42F004021A63DD
:1003B0001A6B02F004020192019A02941A6B42F045
:1003C00080021A631A6B02F080020292029A03946E
:1003D0001A6B42F001021A631A6B02F001020392D7
:1003E000039A04941A6B42F002021A631B6B03F027
:1003F00002030493049B0A4D22462021284600F064
:1004000057FE20230593012306930794089405A91A
:10041000284600F069FD0BB030BD00BF0038024037
:100420000000024008B5012001F0AFFDFBE708B570
:10043000012001F0AAFDFBE708B5012001F0A5FDB0
:10044000FBE708B5012001F0A0FDFBE708B5026855
:10045000034B9A4200D008BD00F030FBFBE700BF21
:100460000000014072B6FEE700B585B0002300939E
:100470000193029303931448144A02604FF48032AC
:10048000426083600361037680F82030C362104AC3
:100490008262C3600122C26180F83030426100F0A4
:1004A000B9FB60B9002300930122019202936946CF
:1004B000054800F0DBFB20B905B05DF804FBFFF751
:1004C000D1FFFFF7CFFF00BF8414002000200140C0
:1004D0000100000F08B50448044B036000F0F4FC71
:1004E00000B908BDFFF7BEFF7C14002000300240B9
:1004F00008B50A480A4B03600A4B43600023836037
:10050000C3604FF48042026143618361C36103624F
:1005100000F0D4FD00B908BDFFF7A4FF28140020A7
:1005200000540040A086010008B50D480D4B036043
:100530004FF48273436000238360C36003614361AF
:100540004FF400728261C3610362436283620A23D3
:10055000C36201F0EFF900B908BDFFF783FF00BFE8
:10056000D01300200038004008B50A480A4B036049
:100570004FF4E133436000238360C36003610C22C6
:1005800042618361C36101F037FC00B908BDFFF728
:1005900069FF00BF8C1300200044004000B595B0F7
:1005A0003022002108A803F04FFC0023039304939A
:1005B00005930693079301931F4A116C41F08051F4
:1005C0001164126C02F080520192019A02931B494D
:1005D0000A6822F4404242F400420A600A6802F4C7
:1005E00040420292029A0221089101220B921022AB
:1005F0000C920E910F9310924FF4A8731193042351
:1006000012930723139308A800F036FE80B90F2336
:10061000039302210491002305934FF48052069224
:10062000079303A801F092F820B915B05DF804FB18
:10063000FFF718FFFFF716FF003802400070004078
:1006400008B500F021FAFFF7A9FFFFF7A3FEFFF7B7
:100650000BFFFFF73FFFFFF74BFFFFF765FFFFF7CC
:1006600083FF01F005FC0F4A00210F4801F02EFC2A
:100670000E4B18600E4A00210E4801F027FC0E4B6D
:1006800018600E4A00210E4801F020FC0D4B186046
:100690000D4A00210D4801F019FC0D4B186001F0C6
:1006A000F9FBFEE73C4400082504000888130020FD
:1006B000184400082F04000800100020F44300082C
:1006C00039040008780C0020D043000843040008D7
:1006D000F008002000B583B0002200920D4B596C49
:1006E00041F480415964596C01F4804100910099B2
:1006F0000192196C41F0805119641B6C03F0805316
:100700000193019B0F216FF0010000F0BFFB03B0CC
:100710005DF804FB0038024000B589B00023039364
:100720000493059306930793026803F1804303F54E
:1007300090339A4202D009B05DF804FB0021019188
:1007400003F58C335A6C42F480725A645A6C02F48A
:1007500080720192019A02911A6B42F001021A63AF
:100760001B6B03F001030293029B532303930323A8
:10077000049303A9014800F0B7FBDCE70000024046
:100780000268094B9A4200D0704782B0002301935F
:10079000064B1A6B42F480521A631B6B03F48053AE
:1007A0000193019B02B070470030024000380240C4
:1007B00030B589B000230393049305930693079300
:1007C0000268144B9A4201D009B030BD0025019552
:1007D000114C236B43F002032363236B03F00203EA
:1007E0000193019BC02303931223049303230693D5
:1007F0000423079303A9094800F076FB0295236CB4
:1008000043F400132364236C03F400130293029B4C
:10081000DAE700BF00540040003802400004024004
:10082000F0B589B0002303930493059306930793CF
:1008300002681F4B9A4201D009B0F0BD0024009419
:1008400003F500331A6C42F480421A641A6C02F405
:1008500080420092009A01941A6B42F004021A63DB
:100860001A6B02F004020192019A02941A6B42F090
:1008700002021A631B6B03F002030293029B0C2318
:1008800003930227049703260696052507950DEB8B
:100890000301084800F028FB4FF48063039304979A
:1008A00005940696079503A9034800F01DFBC3E7CE
:1008B00000380040000802400004024000B589B042
:1008C0000023039304930593069307930268144B44
:1008D0009A4202D009B05DF804FB0021019103F5B2
:1008E000FA331A6C42F400321A641A6C02F40032C1
:1008F0000192019A02911A6B42F001021A631B6B7A
:1009000003F001030293029B0C230393022304933D
:100910000723079303A9034800F0E6FADAE700BFCC
:10092000004400400000024030B589B00546002474
:1009300001941D4B5A6C42F001025A645B6C03F047
:1009400001030193019B02A903A800F0D5FF00F069
:10095000C3FF164AA2FB00239B0C013B1448154A17
:10096000026040F2E732C2604360046184608461E7
:1009700001F08CF9044610B1204609B030BD0C4896
:1009800001F038F804460028F6D1192000F08EFA5C
:100990000F2D01D90124EFE700222946192000F08C
:1009A00075FA054B1D60E7E70038024083DE1B4304
:1009B000CC1400200000014008000020FEE7FEE704
:1009C000FEE7FEE7FEE7704708B5024801F052F87F
:1009D00008BD00BFCC14002010B503460C4A0D49D9
:1009E0000D48006840B10C4800680344521A934215
:1009F00006D8094A136010BD0748084C0460F2E7A6
:100A000003F0A2FA0C2303604FF0FF30F3E700BFBE
:100A1000008001200004000014150020C0630020A5
:100A2000034AD2F8883043F47003C2F88830704724
:100A300000ED00E0DFF834D00D480E490E4A0023E7
:100A400002E0D458C4500433C4188C42F9D30B4A82
:100A50000B4C002301E013600432A242FBD3FFF7EA
:100A6000DFFF03F077FAFFF7EBFD7047008001200E
:100A70000000002050050020A4440008500500207C
:100A8000BC630020FEE7000008B50B4B1A6842F477
:100A900000721A601A6842F480621A601A6842F49E
:100AA00080721A60032000F0DFF90F20FFF73CFF8F
:100AB000FFF710FE002008BD003C0240034A116809
:100AC000034B1B780B441360704700BF18150020C0
:100AD00004000020014B1868704700BF1815002063
:100AE0004A4B5A6822F440325A605A6841680A43B5
:100AF0005A600268536823F4807353600268536835
:100B0000016943EA012353600268536823F040738C
:100B100053600268536881680B43536002689368AE
:100B200023F40063936002689368C1680B43936089
:100B3000826A374B9A4257D00268936823F07063F9
:100B4000936002689368816A0B43936002689368BC
:100B500023F04053936002689368C16A0B4393602B
:100B60000268936823F00203936002689368017E31
:100B700043EA4103936090F82030002B3FD0026895
:100B8000536843F4006353600268536823F460437E
:100B9000536001684B68426A013A43EA42334B6052
:100BA0000268D36A23F47003D3620168CB6AC26916
:100BB000013A43EA0253CB620268936823F400735C
:100BC00093600268936890F8301043EA4123936081
:100BD0000268936823F480639360026893684169B4
:100BE00043EA8123936070470268936823F070633F
:100BF00093600268936823F040539360B0E7026803
:100C0000536823F400635360CAE700BF0023014028
:100C10000100000F38B310B50446036C43B1236CD8
:100C200013F0100F0BD00120002384F83C3010BDCE
:100C3000FFF772FD0023636484F83C30EFE7236C18
:100C400023F4885323F0020343F002032364204675
:100C5000FFF746FF00206064236C23F0030343F09A
:100C600001032364E0E701207047000030B482B044
:100C70000022019290F83C20012A00F0B680034641
:100C8000012280F83C200A68092A40D90468E068FB
:100C900092B202EB42021E3A4FF0070C0CFA02F23B
:100CA00020EA0202E2601C68E0680A8802EB420265
:100CB0001E3A8D6805FA02F20243E2604A68062A8B
:100CC0003CD81C68606B02EB8202053A4FF01F0CA7
:100CD0000CFA02F220EA020262631C68606B4A6846
:100CE00002EB8202053AB1F800C00CFA02F20243AC
:100CF000626318683E4A904250D018683C4A90425D
:100D000055D0002083F83C0002B030BC7047046826
:100D1000206992B202EB42024FF0070C0CFA02F289
:100D200020EA020222611C6820690A8802EB420262
:100D30008D6805FA02F202432261BFE70C2A16D839
:100D40001D68286B02EB8202233A1F2404FA02F288
:100D500020EA02022A631D68286B4A6802EB8202BD
:100D6000233A0C8804FA02F202432A63C1E71D68A1
:100D7000E86A02EB8202413A1F2404FA02F220EAF6
:100D80000202EA621D68E86A4A6802EB8202413A9E
:100D90000C8804FA02F20243EA62AAE70A68122AFD
:100DA000ABD11448426842F480024260A5E70A6869
:100DB000103A012AA5D80F48426842F40002426066
:100DC0000A68102A9DD10C4A12680C49A1FB021234
:100DD000920C02EB82025200019202E0019A013A67
:100DE0000192019A002AF9D18BE702208CE700BF1B
:100DF00000200140002301400000002083DE1B434F
:100E0000002808DB0901C9B200F1604000F561402B
:100E100080F80013704700F00F000901C9B2014BC0
:100E20001954704714ED00E000B500F00700C0F160
:100E3000070CBCF1040F28BF4FF0040C031D062B58
:100E40000FD9C31E4FF0FF3E0EFA0CF021EA00014D
:100E500099400EFA03FE22EA0E0241EA02005DF812
:100E600004FB0023EEE70000074AD36823F4E063A5
:100E70001B041B0C000200F4E060034343F0BF635B
:100E800043F40033D360704700ED00E010B5044632
:100E9000054BD868C0F30220FFF7C6FF0146204685
:100EA000FFF7AEFF10BD00BF00ED00E0002807DB3C
:100EB00000F01F02400901239340024A42F820300B
:100EC000704700BF00E100E058B110B50446437917
:100ED0001BB101236371002010BD0371FFF750FCAB
:100EE000F7E701207047000000230F2B00F2D780A6
:100EF00070B582B065E085684FEA430E032404FABA
:100F00000EF425EA0405CC6804FA0EF42C43846040
:100F1000446824EA02044A68C2F300129A40224359
:100F200042605CE0DC08083450F8242003F0070538
:100F3000AD004FF00F0E0EFA05FE22EA0E0E0A6902
:100F4000AA4042EA0E0240F824205CE0042200E0BD
:100F5000002202FA0EF22A430234514D45F82420B1
:100F6000504A94686FEA0C0224EA0C054E6816F4A5
:100F7000801F01D04CEA04054A4CA560E46802EAEF
:100F800004054E6816F4001F01D04CEA0405454CD8
:100F9000E560646802EA04054E6816F4003F01D07B
:100FA0004CEA04053F4C6560246822404D6815F406
:100FB000803F01D04CEA04023A4C226001330F2BEF
:100FC0006BD801229A400C6804EA020C32EA04044D
:100FD000F4D14C6804F00304013C012C8BD94A681D
:100FE00002F00302032A09D0C4685D000322AA406C
:100FF00024EA02048A68AA402243C2604A6802F0D6
:101000000302022A8ED004684FEA430E032202FA3A
:101010000EF224EA02044A6802F0030202FA0EF217
:10102000224302604A6812F4403FC7D00022019276
:101030001D4A546C44F480445464526C02F480425F
:101040000192019A9C08A51C154A52F8255003F0FC
:10105000030E4FEA8E0E0F2202FA0EF225EA020567
:10106000124A90423FF474AF02F5806290420ED073
:1010700002F5806290420CD002F5806290420AD064
:1010800002F5806290423FF461AF072261E70122DE
:101090005FE702225DE703225BE702B070BD7047A5
:1010A00000380140003C014000380240000002408E
:1010B0000AB181617047090481617047002800F01E
:1010C000CC8070B5044690F83D30002B77D02423B7
:1010D00084F83D302268136823F00103136022680E
:1010E000136843F4004313602268136823F4004339
:1010F000136000F0E1FB62685A4B9A4264D85A4B85
:1011000098428CBF00230123002B40F0A880574950
:10111000A1FB00318B0C25686A6822F03F0242EA8D
:1011200091426A6021680A6A22F03F0266684D4D6A
:10113000AE424FD8013313430B622168CA6922F4CF
:101140004F4222F0FF026568464B9D424CD8431E39
:101150006D00B3FBF5F3013340F6FC70034278D029
:10116000C3F30B031A43CA6121680B6823F0C00361
:10117000E269206A024313430B6021688B6823F401
:10118000034323F0FF032269E068024313438B60AB
:101190002168CB6823F0FF036269A069024313430F
:1011A000CB602268136843F00103136000202064C1
:1011B000202384F83D30206384F83E0070BD80F821
:1011C0003C30FFF7F5FA82E7294B98428CBF0023A9
:1011D000012399E74FF4967505FB03F3254DA5FB15
:1011E00003539B090133A6E7A668BEB9431E05EB6E
:1011F000450CB3FBFCF30133C3F30B03B3FA83F3E6
:101200005B0943BBC6B9431E05EB4505B3FBF5F3CC
:101210000133C3F30B0343F40043A3E7431E05EB81
:10122000850C0CEB8C0CB3FBFCF30133C3F30B0309
:10123000B3FA83F35B09E4E7431E05EB850505EB91
:101240008505B3FBF5F30133C3F30B0343F44043CC
:1012500088E7042386E7012384E701207047012003
:10126000ACE700BFA08601007F841E0083DE1B4325
:10127000FF083D00D34D6210002800F0E08170B5FA
:1012800082B00446036813F0010F3BD09F4B9B686C
:1012900003F00C03042B2CD09C4B9B6803F00C0335
:1012A000082B21D06368B3F5803F4FD0B3F5A02F52
:1012B00052D0964B1A6822F480321A601A6822F4CF
:1012C00080221A606368002B50D0FFF703FC0546AC
:1012D0008E4B1B6813F4003F14D1FFF7FBFB401B40
:1012E0006428F5D90320B1E1884B5B6813F4800FC3
:1012F000D8D0864B1B6813F4003F03D06368002BE3
:1013000000F09F81236813F0020F54D07F4B9B683D
:1013100013F00C0F3ED07D4B9B6803F00C03082BA1
:1013200033D0E368002B68D0794B01221A60FFF7B5
:10133000D1FB0546754B1B6813F0020F54D1FFF724
:10134000C9FB401B0228F5D903207FE16F4A1368CF
:1013500043F480331360B5E76C4B1A6842F4802283
:101360001A601A6842F480321A60ABE7FFF7B2FBEA
:101370000546664B1B6813F4003FC3D0FFF7AAFB7A
:10138000401B6428F5D9032060E1604B5B6813F4CF
:10139000800FC6D15D4B1B6813F0020F03D0E368CA
:1013A000012B40F05081594A136823F0F80321695A
:1013B00043EAC1031360236813F0080F42D0636946
:1013C0006BB3534B0122C3F8802EFFF783FB054616
:1013D0004E4B5B6F13F0020F34D1FFF77BFB401BCA
:1013E0000228F5D9032031E1484A136823F0F803B5
:1013F000216943EAC1031360DDE7454B00221A600F
:10140000FFF768FB0546414B1B6813F0020FD2D073
:10141000FFF760FB401B0228F5D9032016E13C4B87
:101420000022C3F8802EFFF755FB0546374B5B6F54
:1014300013F0020F06D0FFF74DFB401B0228F5D931
:10144000032003E1236813F0040F77D02F4B1B6CAC
:1014500013F0805F33D1002301932C4B1A6C42F0C0
:1014600080521A641B6C03F080530193019B012589
:10147000284B1B6813F4807F23D0A368012B34D042
:10148000052B38D0214B1A6F22F001021A671A6F10
:1014900022F004021A67A368002B3DD0FFF71AFB65
:1014A00006461A4B1B6F13F0020F46D1FFF712FBD3
:1014B000801B41F288339842F3D90320C6E000250F
:1014C000D6E7144A136843F480731360FFF702FBF6
:1014D0000646104B1B6813F4807FCED1FFF7FAFA53
:1014E000801B0228F5D90320B0E0084A136F43F0AF
:1014F00001031367CFE7054B1A6F42F004021A6726
:101500001A6F42F001021A67C5E700BF00380240B7
:101510000000474200700040FFF7DCFA0646524BDD
:101520001B6F13F0020F08D0FFF7D4FA801B41F2B3
:1015300088339842F3D9032088E0EDB9A369002BE2
:1015400000F08380484A926802F00C02082A51D0C9
:10155000022B17D0454B00221A66FFF7BBFA044650
:10156000414B1B6813F0007F42D0FFF7B3FA001B1A
:101570000228F5D9032069E03B4A136C23F080531D
:101580001364DBE7394B00221A66FFF7A3FA05461E
:10159000354B1B6813F0007F06D0FFF79BFA401B0A
:1015A0000228F5D9032051E0E369226A1343626AF5
:1015B00043EA8213A26A5208013A43EA0243E26A0A
:1015C00043EA0263284A5360284B01221A66FFF758
:1015D00081FA0446244B1B6813F0007F06D1FFF705
:1015E00079FA001B0228F5D903202FE000202DE016
:1015F00000202BE0012B2BD01B4B5B6803F48001F8
:10160000E269914226D103F03F02216A8A4223D146
:10161000616A47F6C0721A40B2EB811F1ED103F413
:101620004031A26A5208013AB1EB024F18D103F0DF
:101630007063E26AB3EB026F14D1002006E0012070
:101640007047012002E0012000E0002002B070BDE0
:101650000120FBE70120F9E70120F7E70120F5E78A
:101660000120F3E70120F1E7003802400000474283
:1016700008B5334B9B6803F00C03042B5BD0082B9D
:101680005BD12F4B5A6802F03F025B6813F4800F66
:101690002CD02B4B5868C0F388104FEA401CBCEB91
:1016A000000C6EEB0E0E4FEA8E1343EA9C634FEA7A
:1016B0008C11B1EB0C0163EB0E03DB0043EA5173B9
:1016C000C90011EB000C43F10003590200234FEA5B
:1016D0004C2041EADC51FEF763FD194B5B68C3F314
:1016E000014301335B00B0FBF3F027E0144B586873
:1016F000C0F388104FEA401CBCEB000C6EEB0E0EE2
:101700004FEA8E1343EA9C634FEA8C11B1EB0C0154
:1017100063EB0E03DB0043EA5173C90011EB000CCD
:1017200043F10003990200234FEA8C2041EA9C51C7
:10173000FEF736FDD1E7034800E0034808BD00BFCF
:101740000038024000127A000024F400002800F063
:101750009B8070B50D4604464F4B1B6803F0070392
:101760008B4208D2CBB24C4A1370136803F00703C4
:101770008B4240F08B80236813F0020F17D013F0D8
:10178000040F04D0454A936843F4E0539360236800
:1017900013F0080F04D0414A936843F46043936008
:1017A0003E4A936823F0F003A1680B4393602368DB
:1017B00013F0010F32D06368012B21D09A1E012A49
:1017C00025D9364A126812F0020F61D033498A686F
:1017D00022F0030213438B60FFF77CF906462F4B80
:1017E0009B6803F00C036268B3EB820F16D0FFF71F
:1017F00071F9801B41F288339842F0D9032042E00E
:10180000264A126812F4003FE0D101203BE0234A4F
:10181000126812F0007FD9D1012034E01E4B1B6802
:1018200003F00703AB4207D9EAB21B4B1A701B68DF
:1018300003F00703AB422DD1236813F0040F06D049
:10184000164A936823F4E053E1680B4393602368DE
:1018500013F0080F07D0114A936823F460432169FD
:1018600043EAC1039360FFF703FF0C4B9B68C3F38C
:1018700003130B4AD35CD8400A4B18600A4B186814
:10188000FFF752F8002070BD012070470120FAE7F1
:101890000120F8E70120F6E7003C02400038024052
:1018A000684400080000002008000020014B186870
:1018B000704700BF0000002008B5FFF7F7FF044B9A
:1018C0009B68C3F38223034AD35CD84008BD00BFA2
:1018D000003802406044000808B5FFF7E7FF044BFA
:1018E0009B68C3F34233034AD35CD84008BD00BFB2
:1018F00000380240604400080F2303600B4B9A68D5
:1019000002F0030242609A6802F0F00282609A6874
:1019100002F4E052C2609B68DB0803F4E053036109
:10192000034B1B6803F007030B607047003802404D
:10193000003C024000285AD010B50446436A33B92F
:101940004368B3F5827F05D00023C36102E0002322
:10195000036143610023A36294F85130002B40D00F
:10196000022384F851302268136823F04003136087
:10197000636803F48273A26802F404421343E268CA
:1019800002F400621343226902F002021343626907
:1019900002F001021343A26902F400721343E269E8
:1019A00002F038021343226A02F080021343A26A53
:1019B00002F40052216813430B60638B03F00403AD
:1019C000626A02F01002216813434B602268D369F7
:1019D00023F40063D36100206065012384F8513053
:1019E00010BD84F850302046FEF71AFFB8E70120FA
:1019F0007047704790F83D30DBB2012B2FD10223A6
:101A000080F83D300268D36843F00103D360036877
:101A1000154A934218D0B3F1804F15D0A2F57C42FD
:101A2000934211D002F5806293420DD002F580629C
:101A3000934209D002F59A32934205D01A6842F0D7
:101A400001021A60002070479A6802F00702062A15
:101A500007D01A6842F001021A6000207047012086
:101A600070470020704700BF00000140704770477A
:101A70007047704710B5044603681A6912F0020FE8
:101A800011D0DA6812F0020F0DD06FF002021A6165
:101A90000123037703689B6913F0030F70D0FFF7EE
:101AA000E6FF0023237723681A6912F0040F12D08F
:101AB000DA6812F0040F0ED06FF004021A610223EC
:101AC000237723689B6913F4407F5FD02046FFF79C
:101AD000CEFF0023237723681A6912F0080F12D073
:101AE000DA6812F0080F0ED06FF008021A610423B2
:101AF00023772368DB6913F0030F4ED02046FFF7EE
:101B0000B6FF0023237723681A6912F0100F12D052
:101B1000DA6812F0100F0ED06FF010021A6108236D
:101B200023772368DB6913F4407F3DD02046FFF71D
:101B30009EFF0023237723681A6912F0010F03D058
:101B4000DA6812F0010F36D123681A6912F0800F9B
:101B500003D0DA6812F0800F34D123681A6912F0CA
:101B6000400F03D0DA6812F0400F32D123681A69AF
:101B700012F0200F03D0DA6812F0200F30D110BD20
:101B8000FFF774FF2046FFF773FF8AE72046FFF751
:101B90006DFF2046FFF76CFF9BE72046FFF766FFCF
:101BA0002046FFF765FFACE72046FFF75FFF2046C2
:101BB000FFF75EFFBDE76FF001021A612046FEF7F6
:101BC00045FCC1E76FF080021A61204600F08BF8F7
:101BD000C3E76FF040021A612046FFF74AFFC5E7EE
:101BE0006FF020021A61204600F07CF8C7E7000081
:101BF0000368254A90420ED0B0F1804F0BD0A2F579
:101C00007C42904207D002F58062904203D002F5F8
:101C10008062904203D123F070034A6813431A4A4A
:101C200090421AD0B0F1804F17D0A2F57C4290427A
:101C300013D002F5806290420FD002F5806290428C
:101C40000BD002F59A32904207D002F580629042A2
:101C500003D002F58062904203D123F44073CA6836
:101C6000134323F080034A69134303608B68C36204
:101C70000B688362044B984202D001234361704792
:101C80000B690363F9E700BF0000014040B310B5E2
:101C9000044690F83D30F3B1022384F83D302146EC
:101CA00051F8040BFFF7A4FF012384F8463084F8B1
:101CB0003E3084F83F3084F8403084F8413084F876
:101CC000423084F8433084F8443084F8453084F856
:101CD0003D30002010BD80F83C30FFF78AFEDBE786
:101CE000012070477047704710B5044602681369B9
:101CF00023F44053C1680B431361836802691A439C
:101D000043691A43C3691A430168CB6823F4164335
:101D100023F00C031343CB600268536923F4407330
:101D200081690B4353610368314A934206D002F53F
:101D30008062934202D0FFF7BFFD01E0FFF7CCFDC8
:101D4000E369B3F5004F29D00021031849411B185E
:101D500041F10001C90041EA5371DB0018186368C2
:101D60004FEA83024FEA937341F10001FEF718FA3C
:101D7000204AA2FB00314909642303FB11031B0124
:101D80003233A2FB03235B0903F0F00202EB0112E2
:101D900003F00F03216813448B6010BD0023021869
:101DA00043EB0301121841F10001C90041EA5271ED
:101DB000D200101841F10001626892185B41FEF7F1
:101DC000EFF90C4AA2FB00314909642303FB11031C
:101DD000DB003233A2FB03235B095A0002F4F872E2
:101DE00002EB011203F00703216813448B60D4E770
:101DF000001001401F85EB5158B310B5044690F810
:101E00003D300BB3242384F83D302268D36823F49B
:101E10000053D3602046FFF767FF2268136923F45D
:101E2000904313612268536923F02A0353612268A7
:101E3000D36843F40053D36000202064202384F847
:101E40003D3084F83E3010BD80F83C30FEF736FD62
:101E5000D8E70120704708B54FF0E0231B6901F077
:101E600013FC012800D108BD00F0D4F9FBE7000005
:101E7000EFF305832BB9064B186828B901221A60C5
:101E800070476FF0050070474FF0FF30704700BF9C
:101E9000201E0020EFF3058373B90A4B1B68012B4A
:101EA0000DD110B50024084BDC77064B02221A60D6
:101EB00001F038F9204610BD6FF0050070474FF073
:101EC000FF307047201E002000ED00E0F0B587B025
:101ED00000240594EFF305847CBB70B32AB3156826
:101EE000936903B918235C1E372C4AD8546814F040
:101EF000010F48D1566976B14FEA960C946834B117
:101F0000D768B7F5C07F02D3176907B1C6B92CB13E
:101F10004FF0FF340EE04FF0800CEFE7D4688CB93F
:101F2000146994B14FF0FF3404E0154600241823DF
:101F30004FF0800C012C0AD0ACB1059807B0F0BD71
:101F40000124F7E74FF0FF34F4E70024F2E71469C7
:101F500092680292019400930B466246294601F072
:101F600071F80590E9E705AA019200930B461FFA64
:101F70008CF2294601F0A3F80128DED00023059356
:101F8000DBE70020DAE70020D8E708B5EFF30583A8
:101F900033B908B9002008BD01F030FA0020FAE793
:101FA0006FF00500F7E70000034B0360034B0B6085
:101FB00080231360704700BFA01C0020A01A0020DF
:101FC000034B0360034B0B604FF480731360704747
:101FD000201900201C15002000F1080343604FF079
:101FE000FF328260C36003610023036070470023F7
:101FF0000361704743684B609A688A6051609960DA
:102000000861036801330360704730B40D68B5F1AF
:10201000FF3F11D000F108031C465B681A68AA4212
:10202000FAD963684B6099608C60616008610368ED
:102030000133036030BC70470469F2E7036941680B
:1020400082688A60416851605A68824206D00022E4
:1020500002611A68013A1A601868704782685A600B
:10206000F5E7000082B0002301930D4B1B68B3F12C
:10207000FF3F08D04FF0500383F31188BFF36F8FF9
:10208000BFF34F8FFEE74FF0500383F31188BFF388
:102090006F8FBFF34F8F019B002BFCD002B07047B6
:1020A0000C00002008480068006880F308884FF0A2
:1020B000000080F3148862B661B6BFF34F8FBFF3A0
:1020C0006F8F00DF00BF000008ED00E0DFF80C00BC
:1020D000016841F4700101607047000088ED00E084
:1020E0004FF0807340F8043C21F0010140F8081CD7
:1020F000054B40F80C3C40F8202C6FF0020340F8F0
:10210000243C4438704700BF6520000800000000F0
:10211000074B19680868B0E8F04F80F30988BFF3EF
:102120006F8F4FF0000080F311887047AFF300808D
:10213000885F00204FF0500383F31188BFF36F8F47
:10214000BFF34F8F0B4A136801331360012B00D08C
:1021500070474FF0E023D3F8043D13F0FF0FF7D0A2
:102160004FF0500383F31188BFF36F8FBFF34F8F8E
:10217000FEE700BF0C000020094B1B6843B94FF07D
:10218000500383F31188BFF36F8FBFF34F8FFEE7C8
:10219000013B034A13600BB983F31188704700BFFA
:1021A0000C00002000000000000000000000000003
:1021B000EFF30980BFF36F8F154B1A681EF0100FF5
:1021C00008BF20ED108A20E9F04F10602DE90900CA
:1021D0004FF0500080F31188BFF34F8FBFF36F8F24
:1021E00001F032F94FF0000080F3118809BC196842
:1021F0000868B0E8F04F1EF0100F08BFB0EC108A6E
:1022000080F30988BFF36F8F704700BFAFF3008082
:10221000885F002008B54FF0500383F31188BFF3A7
:102220006F8FBFF34F8F00F0E1FF28B14FF0E02335
:102230004FF08052C3F8042D002383F3118808BDAA
:102240004FF0E022002313619361054B1B680549A1
:10225000A1FB03139B09013B5361072313617047E3
:1022600000000020D34D62104FF0E023D3F8002D82
:102270003D4B9A421CD04FF0E023D3F8002D3B4B4E
:102280009A421ED030B583B0394B1A78D2B201923F
:10229000FF221A701B78DBB28DF803309DF80330F3
:1022A00003F05003334A1370334B07221A601BE0CC
:1022B0004FF0500383F31188BFF36F8FBFF34F8F3D
:1022C000FEE74FF0500383F31188BFF36F8FBFF326
:1022D0004F8FFEE7284A1368013B13609DF80330D7
:1022E0005B00DBB28DF803309DF8033013F0800FF4
:1022F000F0D1214B1B68032B08D04FF0500383F320
:102300001188BFF36F8FBFF34F8FFEE71B021A4A8E
:10231000136003F4E0631360019BDBB2144A137093
:102320004FF0E024D4F8203D43F47003C4F8203D7E
:10233000D4F8203D43F07043C4F8203DFFF780FF00
:1023400000250E4B1D60FFF7C1FED4F8343F43F06B
:102350004043C4F8343FFFF7A5FE01F075F8FFF7DE
:1023600081FE284603B030BD71C20F4170C20F41DB
:1023700000E400E0281E0020241E00200C000020A5
:10238000EFF305830F2B0FD9114A9B5CDBB2114A87
:1023900012789A4208D94FF0500383F31188BFF3A3
:1023A0006F8FBFF34F8FFEE74FF0E023D3F80C3D64
:1023B00003F4E063084A1268934208D94FF05003CF
:1023C00083F31188BFF36F8FBFF34F8FFEE7704722
:1023D000F0E300E0281E0020241E0020124A12F024
:1023E000070F1ED0D11D21F00701C1F57053134412
:1023F0000A460E480260002141601344083B23F066
:1024000007030B48036059601960991A5160136003
:10241000084B1960084B1960084B4FF000421A60D6
:1024200070474FF47053E4E74C1E0020441E002018
:10243000401E0020381E00203C1E00202C1E0020C4
:10244000164B1A461B688342FBD3516802EB010C02
:10245000844509D0416800EB010C634509D0036055
:10246000904219D010607047406801445160104696
:10247000F0E710B40A4C2468A3420BD05B681944FF
:10248000416013681B680360904200D010605DF8E3
:10249000044B70470460F7E7704700BF441E0020FC
:1024A000401E002038B5044600F092FE384B1B68F1
:1024B000B3B1384B1B681C4250D1002C50D004F1F2
:1024C000080214F0070F02D022F007020832002A97
:1024D00055D0314B1B68934253D330490C6804E00C
:1024E000FFF77CFFE5E721461C466368934202D272
:1024F0002368002BF7D1264B1B68A34243D00D68FD
:10250000083523680B6063689B1A102B10D9A0183C
:1025100010F0070F08D04FF0500383F31188BFF37A
:102520006F8FBFF34F8FFEE743606260FFF788FF56
:10253000626819490B689B1A0B60194909688B423C
:1025400001D217490B60134B1B68134363600023D0
:102550002360144A13680133136002E0002500E091
:10256000002500F0CFFE15F0070F0ED04FF05003FE
:1025700083F31188BFF36F8FBFF34F8FFEE7002502
:10258000EFE70025EDE70025EBE7284638BD00BF63
:10259000401E00202C1E00203C1E0020441E002057
:1025A000381E0020341E0020002834D038B50446E0
:1025B000A0F1080550F8043C174A1268134208D1EC
:1025C0004FF0500383F31188BFF36F8FBFF34F8F2A
:1025D000FEE750F8081C41B14FF0500383F3118817
:1025E000BFF36F8FBFF34F8FFEE723EA020340F87C
:1025F000043C00F0EDFD54F8041C084A13680B4439
:1026000013602846FFF71CFF054A13680133136067
:1026100000F078FE38BD70472C1E00203C1E0020C4
:10262000301E002010B50446FFF784FDA26BE36B5B
:102630009A4204D00024FFF79FFD204610BD0124DC
:10264000F9E710B50446FFF775FDA36B23B9012424
:10265000FFF792FD204610BD0024F9E770B504464F
:102660001546866B026C5AB903681BB1002001360F
:10267000A66370BD806801F017F80023A360F6E739
:102680006DB94068FDF7A6FD6368226C1344636072
:10269000A268934219D3236863602846E7E7C068BD
:1026A000FDF798FDE368226C51429B1AE3602268B3
:1026B000934202D2A3680B44E360022D01D00020B4
:1026C000D5E726B1013E0020D1E72846CFE700201C
:1026D000CDE70346026C6AB110B50846D9681144CB
:1026E000D9609C68A14201D31968D960D968FDF707
:1026F00071FD10BD704738B50546FFF71BFD95F815
:10270000454064B201E0013C64B2002C0ADD6B6A12
:1027100043B105F1240000F01DFF0028F3D000F0C4
:10272000ADFFF0E7FF2385F84530FFF725FDFFF704
:1027300001FD95F8444064B201E0013C64B2002C14
:102740000ADD2B6943B105F1100000F003FF0028FA
:10275000F3D000F093FFF0E7FF2385F84430FFF754
:102760000BFD38BD38B5E0B10D460446FFF7E2FC7D
:102770002368E26B216C01FB0230A0600020A063A3
:102780006360013A02FB0133E360FF2384F84430C5
:1027900084F84530FDB9236963B9FFF7EDFC0120EA
:1027A00038BD4FF0500383F31188BFF36F8FBFF331
:1027B0004F8FFEE704F1100000F0CCFE0028ECD0B3
:1027C0004FF0E0234FF08052C3F8042DBFF34F8F3A
:1027D000BFF36F8FE1E704F11000FFF7FDFB04F199
:1027E0002400FFF7F9FBD8E738B51D46049C0B46DB
:1027F00049B92460E063236401212046FFF7B2FF5A
:1028000084F84C5038BD2260F4E740B94FF05003D3
:1028100083F31188BFF36F8FBFF34F8FFEE710B5BF
:1028200084B01C46844653B192B189B94FF050032D
:1028300083F31188BFF36F8FBFF34F8FFEE74FF025
:10284000500383F31188BFF36F8FBFF34F8FFEE701
:102850006AB150230393039B502B13D04FF05003C6
:1028600083F31188BFF36F8FBFF34F8FFEE700290B
:10287000EFD04FF0500383F31188BFF36F8FBFF396
:102880004F8FFEE7039B012384F8463000949DF8A8
:1028900018306046FFF7A8FF204604B010BDF0B521
:1028A00085B0019288B10F461D460446B1B1022D94
:1028B00020D1E36B012B1DD04FF0500383F311881F
:1028C000BFF36F8FBFF34F8FFEE74FF0500383F3DB
:1028D0001188BFF36F8FBFF34F8FFEE7036C002BA0
:1028E000E5D04FF0500383F31188BFF36F8FBFF330
:1028F0004F8FFEE700F0C8FE064658B9019B002B3B
:1029000048D04FF0500383F31188BFF36F8FBFF3AC
:102910004F8FFEE700263DE02A4639462046FFF766
:102920009DFE636A7BB948B14FF0E0234FF08052BF
:10293000C3F8042DBFF34F8FBFF36F8FFFF71CFC5D
:10294000012005B0F0BD04F1240000F003FE0028D2
:10295000F4D04FF0E0234FF08052C3F8042DBFF3C2
:102960004F8FBFF36F8FE9E7FFF706FC0020E8E722
:1029700002A800F035FE012619E0002384F8443057
:1029800021E0002384F8453023E02046FFF7B3FE22
:1029900000F0B8FCFFF7CEFBA26BE36B9A42BBD30F
:1029A000022DB9D0019B002BDED0002EE0D0FFF726
:1029B000E3FB00F00DFCFFF7BDFB94F8442052B29E
:1029C000B2F1FF3FD9D094F8452052B2B2F1FF3FA7
:1029D000D7D0FFF7D1FB01A902A800F00DFED8B9AE
:1029E0002046FFF71FFE0028CFD0019904F1100008
:1029F00000F07CFD2046FFF77EFE00F083FC0028FF
:102A0000C8D14FF0E0234FF08052C3F8042DBFF33C
:102A10004F8FBFF36F8FBDE72046FFF76CFE00F0CE
:102A200071FC00208DE72DE9F84390B10F46164662
:102A30001C460546B1B1022C20D1EB6B012B1DD0F9
:102A40004FF0500383F31188BFF36F8FBFF34F8FA5
:102A5000FEE74FF0500383F31188BFF36F8FBFF38E
:102A60004F8FFEE7036C002BE5D04FF0500383F34C
:102A70001188BFF36F8FBFF34F8FFEE7FFF780FC26
:102A8000EFF311884FF0500383F31188BFF36F8F7A
:102A9000BFF34F8FAA6BEB6B9A4206D3022C04D084
:102AA000002088F31188BDE8F88395F845904FFA27
:102AB00089F9AB6B224639462846FFF7CFFDB9F1BD
:102AC000FF3F06D009F101035BB285F845300120D4
:102AD000E7E76B6A0BB90120E3E705F1240000F09A
:102AE00039FD18B126B101203060DAE70120D8E7BE
:102AF0000120D6E7F0B585B0019290B10F460446AB
:102B0000C1B100F0C1FD064600BB019B002B5ED0A9
:102B10004FF0500383F31188BFF36F8FBFF34F8FD4
:102B2000FEE74FF0500383F31188BFF36F8FBFF3BD
:102B30004F8FFEE7036C002BE3D04FF0500383F37D
:102B40001188BFF36F8FBFF34F8FFEE700263EE083
:102B500039462046FFF7BDFD013DA563236923B932
:102B6000FFF70AFB012005B0F0BD04F1100000F0F2
:102B7000F1FC0028F4D04FF0E0234FF08052C3F86E
:102B8000042DBFF34F8FBFF36F8FE9E7FFF7F4FA20
:102B90000020E8E702A800F023FD012621E0002341
:102BA00084F8443029E0002384F845302BE02046A7
:102BB000FFF7A1FD00F0A6FB09E02046FFF79BFD13
:102BC00000F0A0FB2046FFF73CFD00283FD1FFF7B7
:102BD000B1FAA56B002DBBD1019B002BD6D0002EE6
:102BE000D8D0FFF7C9FA00F0F3FAFFF7A3FA94F888
:102BF00044305BB2B3F1FF3FD1D094F845305BB2C3
:102C0000B3F1FF3FCFD0FFF7B7FA01A902A800F058
:102C1000F3FC0028D1D12046FFF713FD0028C6D0D1
:102C2000019904F1240000F061FC2046FFF763FDE8
:102C300000F068FB0028CAD14FF0E0234FF080522B
:102C4000C3F8042DBFF34F8FBFF36F8FBFE7002092
:102C500089E700000023072B0CD8074A52F83320DD
:102C60000AB10133F7E7044A42F8331002EBC3021A
:102C700050607047704700BF4C5A002070B5044642
:102C80000D461646FFF756FA94F844305BB2B3F19E
:102C9000FF3F0DD094F845305BB2B3F1FF3F0BD04E
:102CA000FFF76AFAA36B5BB12046FFF724FD70BD06
:102CB000002384F84430EDE7002384F84530EFE743
:102CC0003246294604F1240000F028FCECE700001D
:102CD000084B1B681B6823B9074B4FF0FF321A6083
:102CE0007047044B1B68DB68DB685A68024B1A604C
:102CF000704700BFFC5A0020945A00202DE9F0478D
:102D000080460D4617469946089EDDF824A00A9C89
:102D10009200A521206B01F097F8236B07F1804208
:102D2000013A03EB820727F00707002D61D04FF02F
:102D3000000CBCF10F0F09D815F80C3004EB0C0295
:102D400082F8343013B10CF1010CF2E7002384F85F
:102D50004330372E00D93726E662E6640025256524
:102D6000201DFFF744F904F11800FFF740F9246132
:102D7000C6F13806A6616462C4F8785184F87C51C3
:102D80004FF49072294604F1580001F05DF81B4B96
:102D9000E36503F168022266D033636601220023F3
:102DA000C4E93C2343F20E33A4F8F8304AF6CD339D
:102DB000A4F8FA3041F23423A4F8FC304EF26D63EB
:102DC000A4F8FE304DF6EC63A4F800310523A4F816
:102DD00002310B23A4F804314A4641463846FFF736
:102DE0007FF92060BAF1000F01D0CAF80040BDE8B9
:102DF000F087002384F83430ABE700BFB8600020D0
:102E000038B5002407E004EB840293000E48184410
:102E1000FFF7E2F80134372CF5D90C4D2846FFF7BF
:102E2000DBF80B4C2046FFF7D7F80A48FFF7D4F839
:102E30000948FFF7D1F80948FFF7CEF8084B1D60A5
:102E4000084B1C6038BD00BF285B0020145B0020CD
:102E5000005B0020E45A0020D05A0020B85A00201D
:102E6000FC5A0020F85A002010B50446FFF762F91A
:102E7000224A136801331360214B1B685BB1214B5D
:102E80001B686BB91E4B1B68DA6AE36A9A4207D863
:102E90001B4B1C6004E01A4B1C601368012B29D0EB
:102EA000194A1368013313606364E06A174B1B68A7
:102EB000984201D9154B186000EB8000211D144B7E
:102EC00003EB8000FFF796F8FFF756F90D4B1B68F0
:102ED0007BB10B4B1B68DA6AE36A9A4209D24FF066
:102EE000E0234FF08052C3F8042DBFF34F8FBFF3A0
:102EF0006F8F10BDFFF784FFD2E700BFB45A0020E8
:102F0000885F0020A85A0020985A0020AC5A002060
:102F1000285B002010B50446583000F0E7FF94F815
:102F20007D3163B1012B11D0022B0ED04FF0500335
:102F300083F31188BFF36F8FBFF34F8FFEE7206BD2
:102F4000FFF732FB2046FFF72FFB10BD2046FFF7AF
:102F50002BFBFAE70F4B1B68D3B110B5FFF7EAF86C
:102F60000D4BDB68DC68201DFFF768F80B4A13681F
:102F7000013B1360074A1368013B1360FFF7FCF83D
:102F80002046FFF7C7FF034B1B68002BE6D110BD9F
:102F9000704700BFCC5A0020D05A0020B45A0020FD
:102FA00008B5FFF7D7FF074B1B68012BF9D94FF086
:102FB000E0234FF08052C3F8042DBFF34F8FBFF3CF
:102FC0006F8FEEE7285B002070B504460D46174B67
:102FD0001E68174B18680430FFF730F8B4F1FF3F54
:102FE0000DD03444124B1B685C60A64210D9114BC3
:102FF00018680F4B19680431FFF707F870BD002DF2
:10300000EFD00B4B196804310B48FEF7F3FFF5E7DF
:103010000A4B1868064B19680431FEF7F6FF084B97
:103020001B68A342EAD9064B1C60E7E7B05A0020B0
:10303000885F0020F85A0020B85A0020FC5A00206F
:10304000945A002030B587B00B9C8CB10C9DC5B153
:103050004FF4C0750495049DB5F5C07F1AD04FF0AC
:10306000500383F31188BFF36F8FBFF34F8FFEE7D9
:103070004FF0500383F31188BFF36F8FBFF34F8F6F
:10308000FEE74FF0500383F31188BFF36F8FBFF358
:103090004F8FFEE7049D0C9D2C63022485F87D4133
:1030A00000240394029505AC01940A9C0094FFF758
:1030B00025FE0C98FFF7D8FE059807B030BD2DE926
:1030C000F04385B00746884614461E469000FFF739
:1030D000E9F910B381464FF4C070FFF7E3F90546F4
:1030E000A8B1C0F83090002380F87D31039302909E
:1030F0000D9B01930C9B0093334622464146384674
:10310000FFF7FCFD2846FFF7AFFE012007E0484629
:10311000FFF74AFA4FF0FF3001E04FF0FF3005B003
:10312000BDE8F08310B588B000240594069407AA82
:1031300006A905A8FEF738FF059B0293069B01939D
:1031400000942346079A1A491A48FFF77BFF1A4B47
:103150001860E8B100F05CFB01281AD14FF0500371
:1031600083F31188BFF36F8FBFF34F8F134B1B682F
:103170005833134A1360134B4FF0FF321A60124B4F
:1031800001221A60114B00221A60FFF76DF803E06C
:103190000020B0F1FF3F01D008B010BD4FF0500348
:1031A00083F31188BFF36F8FBFF34F8FFEE700BF2C
:1031B00078440008A12F0008905A0020885F002062
:1031C00010000020945A0020A85A0020B05A002075
:1031D000024A136801331360704700BF8C5A002005
:1031E000014B1868704700BFB05A0020F8B53A4B41
:1031F0001B68002B69D1394B1D6801351D60C5B9AD
:10320000374B1B681B6843B14FF0500383F31188A1
:10321000BFF36F8FBFF34F8FFEE7314A1168314B19
:10322000186810601960304A136801331360FFF7A3
:103230004FFD2E4B1B68AB423DD900272C4B1B6822
:10324000DB6A03EB83039A002A4B9B58012B00D9BE
:103250000127294B1B68002B3CD001273AE00127AE
:103260001F4B1B681B6843B31D4B1B68DB68DC6886
:1032700063689D4226D3261D3046FEF7DFFEA36A13
:103280001BB104F11800FEF7D9FEE36A1B4A12686D
:10329000934201D9194A136003EB83039A00314624
:1032A00014481044FEF7A6FEE26A114B1B68DB6A65
:1032B0009A42D4D2D4E70027D2E70C4B4FF0FF322A
:1032C0001A60BBE7094A1360B8E70D4A1368013377
:1032D000136000273846F8BD8C5A0020B05A0020F1
:1032E000FC5A0020F85A00209C5A0020945A0020D2
:1032F000885F0020285B0020A05A0020AC5A0020E4
:10330000A45A002038B5354B1B6843B94FF0500321
:1033100083F31188BFF36F8FBFF34F8FFEE7FEF784
:1033200009FF2E4B1A68013A1A601B68002B4FD117
:103330002B4B1B680BB900244BE00024294B1B6866
:103340001BB3284BDB68DC6804F11800FEF776FE3F
:10335000251D2846FEF772FEE06A234B1B68984243
:1033600001D9214B186000EB800029461F4B03EB6D
:103370008000FEF73FFEE26A1D4B1B68DB6A9A4243
:10338000DCD31C4B01221A60D8E70CB1FFF7A0FC7C
:10339000194B1C6884B9174B1C68D4B14FF0E0235B
:1033A0004FF08052C3F8042DBFF34F8FBFF36F8FE0
:1033B00001240EE0013C07D0FFF718FF0028F9D0E8
:1033C0000C4B01221A60F5E70B4B00221A60E2E772
:1033D0000024FEF7D1FE204638BD00BF8C5A0020E5
:1033E000B45A0020E45A0020AC5A0020285B002088
:1033F000885F0020A05A0020A45A002010B5A8B170
:103400000446104B1B6843B14FF0500383F31188FF
:10341000BFF36F8FBFF34F8FFEE7FFF7D9FE002199
:103420002046FFF7D1FDFFF76DFF48B94FF0E023CD
:103430004FF08052C3F8042DBFF34F8FBFF36F8F4F
:1034400010BD00BF8C5A0020224B1B681BB1224BC1
:1034500001221A607047204B00221A601F4B1B6824
:1034600003EB83018A001E498A585AB90BB1013B0C
:10347000F6E74FF0500383F31188BFF36F8FBFF36C
:103480004F8FFEE7084603EB83018A000244516830
:103490004968516003EB830C4FEA8C020832024406
:1034A00091420FD003EB830291000D4A0A44526807
:1034B000D1680C4A116009490B60136858330A4AF5
:1034C00013607047486862469100054A0A4450609C
:1034D000E8E700BF8C5A0020A05A0020AC5A002018
:1034E000285B0020885F00201000002058B110B534
:1034F0000C46094A11681831FEF787FD0121204664
:10350000FFF762FD10BD4FF0500383F31188BFF346
:103510006F8FBFF34F8FFEE7885F002038B570B123
:103520000D4614460A4A11681831FEF763FD0CB1C6
:103530004FF0FF3521462846FFF746FD38BD4FF0D6
:10354000500383F31188BFF36F8FBFF34F8FFEE7F4
:10355000885F002038B5C368DC6824B304F118051F
:103560002846FEF76BFD184B1B682BBB251D284614
:10357000FEF764FDE06A154B1B68984201D9134BB6
:10358000186000EB80002946114B03EB8000FEF72A
:1035900031FDE26A0F4B1B68DB6A9A4211D90120A8
:1035A0000D4B186038BD4FF0500383F31188BFF303
:1035B0006F8FBFF34F8FFEE729460848FEF71AFDCD
:1035C000E7E70020EEE700BF8C5A0020AC5A00204D
:1035D000285B0020885F0020A05A0020E45A0020C9
:1035E000034B1B680360034B1B684360704700BFBD
:1035F0009C5A0020B05A0020F8B5C8B10C460546C8
:10360000F9B1FEF797FD1B4B19686B68C81A226861
:10361000B2F1FF3F26D0184E36682F68B74201D06E
:103620008B4224D9824215D80023236001241AE05A
:103630004FF0500383F31188BFF36F8FBFF34F8FA9
:10364000FEE74FF0500383F31188BFF36F8FBFF392
:103650004F8FFEE75B1A134423602846FFF7C0FF35
:10366000002400E00024FEF787FD2046F8BD012479
:10367000F9E700BFB05A00209C5A0020014B0122FC
:103680001A607047A05A0020054B1B6833B1054BE8
:103690001B680BB100207047022070470120704763
:1036A000A85A00208C5A002000283BD038B5044688
:1036B0001E4B1B68834208D04FF0500383F31188E0
:1036C000BFF36F8FBFF34F8FFEE7036D43B94FF02A
:1036D000500383F31188BFF36F8FBFF34F8FFEE763
:1036E000013B0365C16AC26C91421DD00BB1002041
:1036F00038BD051D2846FEF7A1FCE06CE062C0F174
:103700003803A3610A4B1B68984201D9084B186023
:1037100000EB80002946074B03EB8000FEF76AFCB4
:103720000120E5E7002070470020E1E7885F0020E6
:10373000AC5A0020285B0020064B1A6813682BB98E
:103740000123036023B9D368186870470023F8E7A2
:10375000002070478C60002008B5416000619142F4
:103760000CD8D21A83699A4201D3012008BD011DE9
:10377000094B1868FEF749FC0020F7E79A4201D28E
:10378000994206D2011D054B1868FEF73EFC002049
:10379000ECE70120EAE700BF886000208C60002091
:1037A00030B583B0FEF7C6FC114B1B681BB1FEF7AA
:1037B000E3FC03B030BD0F4D2846FEF70DFC0E4C68
:1037C0002046FEF709FC0D4B1D600D4B1C600023CD
:1037D00000930C4B0C4A10210A20FFF716F8044BFB
:1037E00018600028E3D00949FFF734FADFE700BF8B
:1037F00084600020A4600020906000208C60002085
:10380000886000208C5F0020DC5F0020804400087E
:1038100010B588B0FFF7C4FF124B1B68CBB1002472
:103820000594069407AA06A905A8FEF7C9FB059BFF
:103830000293069B0193022300932346079A0A49A9
:103840000A48FFF7FFFB0A4B186010B1012008B0CF
:1038500010BD4FF0500383F31188BFF36F8FBFF398
:103860004F8FFEE78460002088440008753B000805
:1038700080600020B8B19C4603461848006858B3E1
:1038800000B585B000910192029305291CDCFFF779
:10389000FBFE022810D000231A4669460F48006834
:1038A000FEF7FDFF15E04FF0500383F31188BFF3DF
:1038B0006F8FBFF34F8FFEE70023069A69460748D4
:1038C0000068FEF7ECFF04E0002362466946FFF75C
:1038D000AAF805B05DF804FB002070478460002062
:1038E00070B582B01B4B1B681A6862B3DB681E6838
:1038F000DC68251D2846FEF7A1FB236A2046984771
:1039000094F8283013F0040FECD0A36933449E429E
:1039100007D26360246129460E4B1868FEF775FBD9
:10392000E0E7002100910B4632462046FFF7A2FF58
:103930000028D7D14FF0500383F31188BFF36F8F66
:10394000BFF34F8FFEE7044A106802490860136016
:1039500002B070BD8C6000208860002038B505463C
:10396000FFF73EFC0446074B1B68834205D8002343
:103970002B60044B1C60204638BDFFF7B1FF0123CC
:103980002B60F6E77C60002070B582B006460D46DD
:1039900017490968C968CC68201DFEF74FFB94F8E9
:1039A00028C01CF0040F08D12CF0010C84F828C0AA
:1039B000236A2046984702B070BDA16933462A4663
:1039C00031442046FFF7C8FE0028F1D000210091C5
:1039D0000B4632462046FFF74DFF0028E8D14FF056
:1039E000500383F31188BFF36F8FBFF34F8FFEE750
:1039F0008C60002070B582B006460C46FFF7E8FBED
:103A000001A8FFF7ABFF019B33BB0546E4B9B04209
:103A100013D22246711B124B1868FFF72FF9FFF7DC
:103A200071FCD8B94FF0E0234FF08052C3F8042D59
:103A3000BFF34F8FBFF36F8F10E0FFF763FC294692
:103A40003046FFF7A1FF09E0064A126812680AB97A
:103A50000124DEE71C46DCE7FFF754FC02B070BD32
:103A6000846000208860002010B588B002E0049BCC
:103A7000002B0FDA002204A93D4B1868FFF73AF833
:103A8000002873D0049B002BF1DA07990698059B58
:103A90009847ECE7069C636913B1201DFEF7CEFA48
:103AA00003A8FFF75BFF049B092BE3D8DFE803F0D3
:103AB0000505053037500505303794F8283043F0B8
:103AC000010384F82830059BA16902461944204669
:103AD000FFF742FE0028CDD0236A2046984794F88D
:103AE000283013F0040FC5D0A269002100910B46C5
:103AF000059802442046FFF7BDFE0028BAD14FF0DA
:103B0000500383F31188BFF36F8FBFF34F8FFEE72E
:103B100094F8283023F0010384F82830AAE794F8B9
:103B2000283043F0010384F828300599A16131B1B0
:103B30000346024601442046FFF70EFE9AE74FF087
:103B4000500383F31188BFF36F8FBFF34F8FFEE7EE
:103B500094F8283013F0020F04D023F0010384F806
:103B6000283087E72046FEF71FFD83E708B010BD29
:103B70008460002000B583B001A8FFF7DDFD019946
:103B8000FFF738FFFFF770FFF6E700002DE9F04779
:103B9000089D0C46002B4ED194468C458646B2FAC1
:103BA00082F262D94AB1C2F12003914020FA03F3B4
:103BB0000CFA02FC194300FA02FE4FEA1C471FFAF6
:103BC0008CF6B1FBF7F44FEA1E4307FB141143EAEE
:103BD000014304FB06F199420AD91CEB030304F1EB
:103BE000FF3080F01281994240F20F81023C634421
:103BF000591A1FFA8EF3B1FBF7F007FB101143EAD5
:103C0000014300FB06F69E420AD91CEB030300F1B8
:103C1000FF3180F0FC809E4240F2F980634402381C
:103C20009B1B40EA044000211DB1D3400022C5E99E
:103C30000032BDE8F0878B4205D90DB1C5E900011E
:103C400000210846F5E7B3FA83F1002946D1A342E3
:103C500002D39042C0F0F080861A64EB0303012087
:103C6000002DE6D0C5E90063E3E7002A40F090802C
:103C7000A1EB0C044FEA1C481FFA8CF70121B4FB9E
:103C8000F8F64FEA1E4308FB164443EA044307FBD9
:103C900006F0984208D91CEB030306F1FF3402D268
:103CA000984200F2CD8026461C1A1FFA8EF3B4FB10
:103CB000F8F008FB104443EA044300FB07F79F4277
:103CC00008D91CEB030300F1FF3402D29F4200F23B
:103CD000B0802046DB1B40EA0640A5E7C1F1200684
:103CE0008B4022FA06F71F4320FA06FC04FA01F380
:103CF00043EA0C03F44000FA01F8380C4FEA134988
:103D0000B4FBF0FE1FFA87FC00FB1E4449EA0444A2
:103D10000EFB0CF9A14502FA01F20AD93C190EF189
:103D2000FF3A80F08480A14540F28180AEF1020E1E
:103D30003C44A4EB09041FFA83F9B4FBF0F300FB45
:103D4000134449EA044403FB0CFCA44507D93C197D
:103D500003F1FF3067D2A44565D9023B3C4443EAF6
:103D60000E40A0FB0293A4EB0C049C42CE469C4662
:103D700051D34ED055B1B8EB0E0364EB0C0404FAEA
:103D800006F6CB401E43CC40C5E90064002150E755
:103D9000C2F1200320FA03F10CFA02FC24FA03F327
:103DA00094400C434FEA1C4800FA02FE1FFA8CF7BD
:103DB000B3FBF8F008FB1031230C43EA014300FB8E
:103DC00007F1994208D91CEB030300F1FF362CD20E
:103DD00099422AD9023863445B1AA4B2B3FBF8F1C2
:103DE00008FB113344EA034401FB07F3A34208D95B
:103DF0001CEB040401F1FF3613D2A34211D902399E
:103E00006444E41A41EA004139E70446F0E6084612
:103E100006E7C845AED2B9EB020E63EB070C0138DA
:103E2000A8E73146EDE7034699E73046D4E7D646A2
:103E30007FE7634402384DE70646234608460FE70E
:103E4000023E634430E700BF830730B547D0541EBD
:103E5000002A3ED0CAB2034601E0013C39D303F840
:103E6000012B9D07F9D1032C2CD9CDB205EB0525EB
:103E70000F2C05EB054535D9A4F1100222F00F0CEB
:103E800003F1100EE6444FEA121C1A461560556005
:103E90009560D56010327245F8D10CF1010214F032
:103EA0000C0F03EB021204F00F0C13D0ACF104035F
:103EB00023F003030433134442F8045B9A42FBD11A
:103EC0000CF003042CB1C9B21C4403F8011B9C4242
:103ED000FBD130BD64461346002CF4D1F9E703460C
:103EE0001446C0E71A46A446E0E700BF154B1B681E
:103EF000834225D0416C70B5054681B100268C59AE
:103F00003CB121462468284600F0BCF8002CF8D1CA
:103F1000696C0436802EF2D1284600F0B3F8A96B04
:103F200011B1284600F0AEF8E96C11B1284600F056
:103F3000A9F86B6B1BB12846BDE87040184770BDEF
:103F4000704700BF10000020014B1868704700BF89
:103F50001000002070B50F4B0F4DAB42A3EB0506D0
:103F600007D0B610002455F8043B01349847A64208
:103F7000F9D800F005FA094D094B5E1BAB424FEA38
:103F8000A60606D0002455F8043B01349847A64203
:103F9000F9D870BD98440008984400089844000877
:103FA000A0440008704700BF704700BF024B13B128
:103FB000024800F005B8704700000000BD4200084C
:103FC000002301461A46184600F09AB92DE9F84335
:103FD00006460820894600F085F9DFF8A4800546EA
:103FE000304600F04DF9D8F808305F6827F0030735
:103FF000A7F11104A4EB09042C44B4FBF5F4013C33
:1040000005FB04F4A54208DC0021304600F044F929
:10401000D8F808303B44984205D0304600F036F9D5
:104020000020BDE8F8836142304600F035F90130E8
:104030000FD0114AD8F808303F1B47F001075F60E6
:10404000136830461B1B136000F020F90120BDE807
:10405000F8830021304600F01FF9D8F80820831AB1
:104060000F2BDADD43F001035360044B02491B6858
:10407000C01A0860D1E700BF006200203C010020A8
:104080004801002000297CD02DE9F0410C468046F3
:1040900000F0F6F854F8043C764FA4F1080523F03C
:1040A00001016818BE684268864222F0030200F0EF
:1040B0008380DE07426000EB020C33D454F8084CD6
:1040C000DCF804302D1B2144AC6807F1080C644572
:1040D00003F0010364D0D5F80CE0C4F80CE0CEF88E
:1040E0000840002B00F0818041F001036B6001600B
:1040F000B1F5007F22D27868CB080122490901334B
:104100008A40024357F833107A6007EBC302083A3B
:10411000C5E9021247F83350CD604046BDE8F04192
:1041200000F0B4B8DCF80430DB072BD541F0010314
:10413000B1F5007F44F8043C0160DCD3B1F5206F99
:104140004FEA512353D28B0903F1390003F13802AE
:10415000C300F818FB580838984203D163E09B6805
:10416000984204D05A6822F003028A42F7D8D868ED
:10417000C5E902308560DD604046BDE8F04100F0F1
:1041800085B87047114407F1080C836863453FD038
:10419000C268DA60936041F001036B606950A7E781
:1041A000002B61D10A44D0E90213CB60996042F040
:1041B00001036B60AA50B0E7DB070A4407D454F848
:1041C000083CED1A1A44D5E90213CB60996042F01D
:1041D00001036B60284BBD601B6893429DD8274B41
:1041E00040461968FFF7F2FE97E71144CDE7142B1C
:1041F00008D9542B1FD80B0B03F16F0003F16E028B
:10420000C300A6E703F15C0003F15B02C300A0E773
:1042100041F001033D617D61C5F808C0C5F80CC0DF
:104220006B60695079E779689210012404FA02F210
:104230000A437A609CE7B3F5AA7F06D8CB0B03F15B
:10424000780003F17702C30083E740F254529342AF
:1042500006D88B0C03F17D0003F17C02C30078E7E4
:104260004FF47E737E2274E741F001036B600160BE
:1042700053E700BF480100204001002028620020D1
:104280000148FFF78FBE00BFF46100200148FFF72F
:104290008BBE00BFF461002038B5074D00220446F4
:1042A00008462A60FCF798FB431C00D038BD2B68F9
:1042B000002BFBD0236038BDF061002038B5074DDE
:1042C000074C2C1BA41005D0013C55F8043D984721
:1042D000002CF9D1BDE8384000F058B8A4440008DB
:1042E000A0440008082802D14FF48050704708B558
:1042F000FFF72AFE162303604FF0FF3008BD00BF12
:104300002DE9F8431B4D0646286898460F4691460E
:10431000FFF748FE184B1C681CB3286865681F2D02
:1043200022DC4EB96B1C0235636044F82570FFF740
:104330003BFE0020BDE8F88304EB85010123C1F8B2
:104340008890D4F88821AB401A43022EC4F8882103
:10435000C1F80881E6D1D4F88C211A43C4F88C2125
:10436000E0E7064C1C60D8E7FFF71EFE4FF0FF3079
:10437000E0E700BF38010020FC6100202C62002033
:10438000F8B500BFF8BC08BC9E467047F8B500BF42
:08439000F8BC08BC9E46704712
:104398005461736B5F43414E5F5278005461736B95
:1043A8005F43414E5F5478005461736B5F4461749E
:1043B800615F4163717569005461736B5F424D536E
:1043C8005F4D61696E00000098430008000000001E
:1043D8007005002080010000F006002000020000A7
:1043E800280000000000000000000000A4430008AE
:1043F80000000000F808002080010000780A002072
:104408000002000010000000000000000000000092
:10441800B043000800000000800C0020800100006C
:10442800000E002000020000200000000000000034
:1044380000000000C0430008000000000810002031
:104448008001000088110020000200001800000010
:10445800000000000000000000000000010203044A
:10446800000000000000000001020304060708091C
:1044780049444C4500000000546D72510000000092
:08448800546D722053766300AD
:0844900044BDFF7F01000000A4
:08449800AD3F000871030008AC
:0444A00049030008C4
:1044A4000024F4000100000010000000AAAAAAAA37
:1044B400180000200000000000000000B860002088
:1044C400206100208861002000000000000000003E
:1044D40000000000000000000000000000000000D8
:1044E40000000000000000000000000000000000C8
:1044F40000000000000000000000000000000000B8
:1045040000000000000000000000000000000000A7
:104514000000000000000000000000000000000097
:104524000000000000000000000000000000000087
:104534000000000000000000000000000000000077
:104544000000000000000000000000000000000067
:1045540001000000000000000E33CDAB34126DE604
:10456400ECDE05000B00000000000000000000006D
:104574000000000000000000000000000000000037
:104584000000000000000000000000000000000027
:104594000000000000000000000000000000000017
:1045A4000000000000000000000000000000000007
:1045B40000000000000000000000000000000000F7
:1045C40000000000000000000000000000000000E7
:1045D4000000000000000000F8610020FFFFFFFF62
:1045E40000000200000000000000000000000000C5
:1045F4004801002048010020500100205001002003
:1046040058010020580100206001002060010020B2
:104614006801002068010020700100207001002062
:104624007801002078010020800100208001002012
:1046340088010020880100209001002090010020C2
:104644009801002098010020A0010020A001002072
:10465400A8010020A8010020B0010020B001002022
:10466400B8010020B8010020C0010020C0010020D2
:10467400C8010020C8010020D0010020D001002082
:10468400D8010020D8010020E0010020E001002032
:10469400E8010020E8010020F0010020F0010020E2
:1046A400F8010020F8010020000200200002002090
:1046B400080200200802002010020020100200203E
:1046C40018020020180200202002002020020020EE
:1046D400280200202802002030020020300200209E
:1046E400380200203802002040020020400200204E
:1046F40048020020480200205002002050020020FE
:1047040058020020580200206002002060020020AD
:10471400680200206802002070020020700200205D
:10472400780200207802002080020020800200200D
:1047340088020020880200209002002090020020BD
:104744009802002098020020A0020020A00200206D
:10475400A8020020A8020020B0020020B00200201D
:10476400B8020020B8020020C0020020C0020020CD
:10477400C8020020C8020020D0020020D00200207D
:10478400D8020020D8020020E0020020E00200202D
:10479400E8020020E8020020F0020020F0020020DD
:1047A400F8020020F802002000030020000300208B
:1047B4000803002008030020100300201003002039
:1047C40018030020180300202003002020030020E9
:1047D4002803002028030020300300203003002099
:1047E4003803002038030020400300204003002049
:1047F40048030020480300205003002050030020F9
:1048040058030020580300206003002060030020A8
:104814006803002068030020700300207003002058
:104824007803002078030020800300208003002008
:1048340088030020880300209003002090030020B8
:104844009803002098030020A0030020A003002068
:10485400A8030020A8030020B0030020B003002018
:10486400B8030020B8030020C0030020C0030020C8
:10487400C8030020C8030020D0030020D003002078
:10488400D8030020D8030020E0030020E003002028
:10489400E8030020E8030020F0030020F0030020D8
:1048A400F8030020F8030020000400200004002086
:1048B4000804002008040020100400201004002034
:1048C40018040020180400202004002020040020E4
:1048D4002804002028040020300400203004002094
:1048E4003804002038040020400400204004002044
:1048F40048040020480400205004002050040020F4
:1049040058040020580400206004002060040020A3
:104914006804002068040020700400207004002053
:104924007804002078040020800400208004002003
:1049340088040020880400209004002090040020B3
:104944009804002098040020A0040020A004002063
:10495400A8040020A8040020B0040020B004002013
:10496400B8040020B8040020C0040020C0040020C3
:10497400C8040020C8040020D0040020D004002073
:10498400D8040020D8040020E0040020E004002023
:10499400E8040020E8040020F0040020F0040020D3
:1049A400F8040020F8040020000500200005002081
:1049B400080500200805002010050020100500202F
:1049C40018050020180500202005002020050020DF
:1049D400280500202805002030050020300500208F
:1049E400380500203805002040050020400500203F
:0400000508000A35B0
:00000001FF
